:100000000C9458000C9480000C9480000C94800098
:100010000C9480000C9480000C9480000C94800060
:100020000C9480000C9480000C9480000C94D409F3
:100030000C9480000C9480000C9480000C94800040
:100040000C9480000C9480000C9480000C94800030
:100050000C9480000C9480000C9480000C94800020
:100060000C942E0B0C94800000000008000201008C
:100070000003040700000000000000000102040863
:100080001020408001020408102001020408102002
:10009000040404040404040402020202020203032E
:1000A0000303030300000000250028002B00BA0A08
:1000B00011241FBECFEFD8E0DEBFCDBF11E0A0E01E
:1000C000B1E0E2E6FDE102C005900D92A832B10771
:1000D000D9F726E0A8E2B1E001C01D92A735B2072A
:1000E000E1F710E0C8E5D0E004C02197FE010E94CE
:1000F000A00EC735D107C9F70E94260E0C94AF0E8B
:100100000C940000E0915501F0915601808181111D
:1001100007C08FEF9FEF90932C0180932B010895E0
:10012000E0915501F09156010580F681E02D808126
:100130009181F1CFBF92CF92DF92EF92FF920F9316
:100140001F93CF93DF93EC01B62EC0903401D09073
:1001500035010091550110915601E0905301F09046
:10016000540180918D0190918E0102960E94170892
:10017000CF3FDC0709F042C0BB2009F43FC0E0914B
:100180003801F0913901A0918D01B0918E01159641
:10019000FC93EE931497A0918D01B0918E01848110
:1001A000958117969C938E93169780918D019091CF
:1001B0008E01A481B581029613969C938E9312971B
:1001C00080918D0190918E01029695838483E091B8
:1001D0008D01F0918E0187E391E093878287809172
:1001E00037018F5F80933701DF91CF911F910F917E
:1001F000FF90EF90DF90CF90BF900895CC0DDD1D64
:10020000E0918D01F0918E01D383C28360918D01C5
:1002100070918E016E5F7F4FCC15DD0560F4C701D4
:10022000DF91CF911F910F91FF90EF90DF90CF90D2
:10023000BF900C94E107C8010E94E10780912B0157
:1002400090912C01C817D90778F6D0932C01C09350
:100250002B01CACFCF93DF9380914001811103C05E
:10026000DF91CF9108950FB6F8940F92E091460177
:10027000F0914701C681D781CE0102960E941708EE
:1002800080913601815080933601809140018150E8
:10029000809340010F900FBE8F89988D0E94720845
:1002A000CE010E947208D8CF0E942A018091690174
:1002B0008230D0F30E941F09F7CF4F925F926F9266
:1002C0007F928F929F92AF92BF92CF92DF92EF92E6
:1002D000FF920F93CF93DF934C015B012901C42E52
:1002E000D12CC6010E943A083C01892B09F4CEC0EA
:1002F00084E290E00E943A08EC01892B09F4C3C023
:1003000084E2DE011D928A95E9F7788E6F8AB1E06A
:10031000CB1AD1086C0C7D1CA114B10409F0C7C024
:10032000043008F003E00E8B0D8F6E01B2E0CB0EAF
:10033000D11CC6010E94DD07CE010C960E94DD078C
:10034000D987C88784E090E0801B91099D878C87BE
:10035000DB8BCA8BA201B401C3010E94730899838D
:100360008883E114F10419F0F701D183C0830FB63B
:10037000F8940F92809136018F5F809336018091BF
:100380008D0190918E01892B09F0A7C0D0938E0129
:10039000C0938D0180913601813081F589E691E02D
:1003A0000E94CF0782E791E00E94CF078BE791E0A0
:1003B0000E94CF0784E891E00E94CF0780E691E099
:1003C0000E94CF0787E591E00E94CF078AE491E081
:1003D0000E94CF0781E491E00E94CF0787E391E07C
:1003E0000E94CF0780E691E09093560180935501DB
:1003F00087E591E0909354018093530180912D0102
:100400008F5F80932D01AE89809133018A1710F49C
:10041000A093330129E02A9FD0011124A759BE4F90
:1004200011960D90BC91A02DBD83AC8314968D9137
:100430009C9115979F838E8314968D919C9115970F
:10044000FC01D382C2821596DC92CE9214979E89CB
:10045000929FF0011124E759FE4FFB87EA878081C4
:100460008F5F80830F900FBE80913201882349F007
:10047000E0918D01F0918E018689891710F40E9418
:100480001F0981E004C0C3010E9472088FEFDF9151
:10049000CF910F91FF90EF90DF90CF90BF90AF90F2
:1004A0009F908F907F906F905F904F900895F5018F
:1004B000AE01475E5F4FC50104962191DA012D938D
:1004C000AD019F0121503109D9012C91222319F04E
:1004D000E817F90791F71C8E23CF80913201811123
:1004E0008DCFE0918D01F0918E019E8986899817BC
:1004F00008F484CFD0938E01C0938D017FCFEF920B
:10050000FF920F93CF93DF9300D000D0CDB7DEB72B
:1005100089E4898384E48A838CE48B8385E48C83F7
:1005200089E2E82E81E0F82E00E030E020E045E5A9
:10053000BE016F5F7F4F84E591E00E945D018823DB
:1005400089F0813079F4F8942FEF3FEF30932C014C
:1005500020932B01809332011092350110923401C7
:100560000E94DF08809100010F900F900F900F9074
:10057000DF91CF910F91FF90EF9008958091280126
:100580008F5F809328010895CF92DF92EF92FF92C0
:100590000F931F93CF93DF93809128018111E5C0C2
:1005A000C0913401D09135016E018FEFC81AD80A7D
:1005B000D0923501C0923401C114D104B9F48091B4
:1005C000550190915601209153013091540130937F
:1005D00056012093550190935401809353018091CB
:1005E0002E018F5F80932E010E94820080912B014B
:1005F00090912C01C816D906E8F480E0E0918D01B5
:10060000F0918E01E689D9E0ED9FF0011124E759C0
:10061000FE4F9081923008F081E090912F0191116E
:1006200081E0DF91CF911F910F91FF90EF90DF90CC
:10063000CF90089580E069E0E0915501F091560176
:100640009081911107C02FEF3FEF30932C01209341
:100650002B01D4CFE0915501F09156010580F68130
:10066000E02D0680F781E02D22813381C216D3066A
:1006700060F3C285D3852481358146815781D901B4
:1006800015965C934E93149746815781DA01139621
:100690003C932E9312979F012E5F3F4F09811A8141
:1006A0000217130711F45A8349831386128698811F
:1006B00091509883A489B5891097F9F0468557859C
:1006C00000891189EA011D830C8300891189E801E1
:1006D0005B834A831196ED90FC901297AF01445FC3
:1006E0005F4FE416F50621F412961C930E931197B2
:1006F000158A148A9C9191509C93A68990913301FC
:100700009A1710F4A09333016A9FD0011124A759BE
:10071000BE4F11960D90BC91A02DB583A483149665
:100720004D915C9115975783468314964D915C913A
:100730001597EA013B832A8315963C932E931497D1
:100740002689269FD0011124A759BE4FB387A287BF
:100750009C919F5F9C93E0918D01F0918E01968911
:10076000921708F069CF81E067CF809130019091B6
:1007700031010196909331018093300180E051CF97
:10078000EF92FF920F931F93CF93DF930FB6F894DE
:100790000F92809128018150809328018091280137
:1007A000882351F080E00F900FBEDF91CF911F9111
:1007B0000F91FF90EF90089580913601882391F377
:1007C000E0904F01F0905001F0E0E0E039E041E0CE
:1007D00080914A01811122C0EF2B11F00E9482000A
:1007E000C0913001D0913101209761F011E00E9459
:1007F000C402811110932F012197C9F71092310182
:100800001092300180912F01882361F280918D0137
:1008100090918E010E941F0981E0C5CFD7011696E5
:10082000ED91FC91A489B589668577858089918948
:10083000EB019D838C8380899189EC017B836A83A2
:10084000BF01645F7F4F11960D911C91129706179F
:10085000170721F412969C938E931197158A148A88
:100860008C9181508C93A285B3858481958166811A
:100870007781EC017D836C8366817781EB019B83BB
:100880008A83CF01029611960D911C911297081739
:10089000190721F412967C936E9311971386128692
:1008A0002C9121502C93A689209133012A1710F402
:1008B000A09333013A9FD0011124A759BE4F11963E
:1008C0000D90BC91A02DB583A48314966D917C915D
:1008D00015977783668314966D917C911597EB013C
:1008E0009B838A8315969C938E9314979689939FE6
:1008F000D0011124A759BE4FB387A2878C918F5F77
:100900008C93A0918D01B0918E0156968C91891790
:1009100008F05ECF40932F015BCFCF93DF93EC01C4
:10092000892B29F40E941F09DF91CF9108950E941D
:10093000BE0260E0CE010E949A000E94C00388239C
:1009400089F3F2CF80912801882321F081E0809300
:100950002F01089510922F012091330189E0422F39
:1009600050E0849FF001859FF00D1124E759FE4F60
:100970009081992359F1A181B28112966D917C9158
:1009800072836183289FC001112484599E4F681788
:10099000790721F4858196819283818389E0849F00
:1009A000F001859FF00D1124E759FE4F0180F2817F
:1009B000E02D8681978190938E0180938D01209305
:1009C000330180918D0190918E0108952150C7CF00
:1009D000CF93DF93EB0160918D0170918E01645F85
:1009E0007F4F0E94E10761E0CE01DF91CF910C942F
:1009F0009A00CF93DF93DC011596ED91FC91068070
:100A0000F781E02DA489B58986859785208931896C
:100A1000EC013D832C83C089D1899B838A83CF01DC
:100A20000C9611962D913C9112972817390721F4B5
:100A30001296DC93CE931197158A148A2C9121502B
:100A40002C9320912801211157C0A285B385848160
:100A5000958126813781EC013D832C83C681D78126
:100A60009B838A83CF01029611962D913C91129718
:100A70002817390721F41296DC93CE931197138629
:100A800012862C9121502C93C689209133012C176A
:100A900010F4C093330129E02C9FE0011124C759C1
:100AA000DE4F0980DA81C02DD583C4834C815D81FE
:100AB00057834683AC81BD8113969C938E93129786
:100AC0009D838C83A689A29FD0011124A759BE4F74
:100AD000B387A2878C918F5F8C93A0918D01B09189
:100AE0008E01968956968C91891730F581E0809316
:100AF0002F01DF91CF910895A0914B01B0914C014E
:100B0000B787A68714962D913C911597318B208B32
:100B10001496CD91DC9115979B838A8315969C93AF
:100B20008E9314978AE491E0958B848B80914A018F
:100B30008F5F80934A01D1CF80E0DBCF20912E01DF
:100B4000FC012083209134013091350132832183CF
:100B50000895CF93DF930FB6F8940F92409134012C
:100B600050913501DB012D913C912F3F320701F16E
:100B7000EC01E981FA81A0912E01B881BA1761F0E8
:100B80004E175F0748F0FB011182108281E00F9041
:100B90000FBEDF91CF9108954E1B5F0B4217530795
:100BA00090F7241B350BDB012D933C930E949E058F
:100BB00080E0EDCF81E080932F0108950F931F9384
:100BC000CF93DF93EC01892B31F480E0DF91CF915B
:100BD0001F910F9108958E8D81508E8F2E899D8D3E
:100BE000291799F38111F1CF8E010E5F1F4FC801B4
:100BF0000E9417088D8D8E8B482F50E024E030E046
:100C0000241B350B3D872C8790913301981710F4E6
:100C10008093330189E0849FD001859FB00D11241A
:100C2000A759BE4F11960D90BC91A02DBD83AC83EA
:100C300014962D913C9115973F832E831496ED9138
:100C4000FC9115971383028315961C930E931497AA
:100C5000EE89E89FF0011124E759FE4FFB87EA87F0
:100C600080818F5F808381E0B1CF0F931F93CF93FB
:100C7000DF93EC01042F1A8D4C8D411111C0888136
:100C80009981892B29F58C819D810E94DE051D8229
:100C90001C821F5F1A8FDF91CF911F910F910895D2
:100CA00050E0011117C08A819B810E94A60E8C8D95
:100CB0002A813B81820F932F911D9B838A832C81F4
:100CC0003D818217930720F0888199819B838A83D5
:100CD00080E0DFCF8E819F810E94A60E8C8D90E0F8
:100CE0009195819591092E813F81280F391F3F836E
:100CF0002E83488159812417350730F42C813D819A
:100D0000820F931F9F838E83023011F7112301F30B
:100D10001150DECFEF92FF921F93CF93DF93EC0140
:100D20000FB6F8940F921E8D7C0181E1E80EF11C44
:100D30001116C4F08FEF8E8F0F900FBE0FB6F89480
:100D40000F921D8D7E0188E0E80EF11C1116ACF0AB
:100D50008FEF8D8F0F900FBEDF91CF911F91FF907E
:100D6000EF9008958989882329F3C7010E94F90427
:100D700081110E94DA051150DBCF8885882341F369
:100D8000C7010E94F90481110E94DA051150DECFDB
:100D9000CF93DF93009709F43FC0FC01238D2223FA
:100DA00009F43AC0EC01448D0FB6F8940F9280819B
:100DB0009181FC01249FE00DF11D1124FD83EC8342
:100DC0001A8E9B838A832150330B429FF001439FED
:100DD000F00D11248E0F9F1F9F838E838FEF8D8FB9
:100DE0008E8F611110C08885882339F0CE01089656
:100DF0000E94F90481110E941F090F900FBE81E02B
:100E0000DF91CF910895CE0108960E94CF07CE01C1
:100E100041960E94CF07F1CF80E0F2CF0F931F934E
:100E2000CF93DF93811108C0D0E0C0E0CE01DF9105
:100E3000CF911F910F910895869F90011124213E1B
:100E4000310594F7162F082FC9014F960E943A08D2
:100E5000EC01009749F3111109C0998388830B8F26
:100E60001C8F61E0CE010E94C806E0CF4F969983A7
:100E70008883F5CFAF92BF92CF92DF92FF920F930C
:100E80001F93CF93DF9300D000D01F92CDB7DEB772
:100E90008C016B015D834C83F22E80E0580198E059
:100EA000A90EB11C0FB6F8940F92F801228D938D04
:100EB000291718F0F2E0FF1222C04F2DB601C80129
:100EC0000E943506F8019189992321F0C8014196C5
:100ED0000E94F90481110E941F090F900FBE81E04A
:100EE0000F900F900F900F900F90DF91CF911F9167
:100EF0000F91FF90DF90CF90BF90AF9008952C811D
:100F00003D81232B21F40F900FBE80E0E9CF8111AA
:100F100004C0CE0101960E949E050F900FBE0E9454
:100F2000BE020FB6F8940F92F801858D8F3F09F439
:100F3000158EF801868D8F3F09F4168E0F900FBE27
:100F4000BE016C5F7F4FCE0101960E94A905811101
:100F500020C00FB6F8940F92F801928D0F900FBE3B
:100F6000838D981310C06C817D81C5010E94E804B7
:100F7000C8010E948A060E94C003811102C00E941B
:100F80001F0981E08FCFC8010E948A060E94C0031A
:100F9000F8CFC8010E948A060E94C003B6CFFC01A8
:100FA0000396928381832FEF3FEF348323839683CD
:100FB00085839087878310820895FC0111861086AF
:100FC00008950F931F93CF93DF938C01FB018081D2
:100FD0009181D80113968F3F9807F1F4E801AF8112
:100FE000B88512968D919C91139793838283EC011F
:100FF000FD83EC83B583A4831396FC93EE93129741
:1010000011870087F80180818F5F8083DF91CF9106
:101010001F910F910895D90112962D913C9113972C
:10102000E9014881598184179507A8F7DACFCF9352
:10103000DF93FC01A085B185828193812481358174
:10104000EC013D832C83C481D5819B838A831196D7
:101050008D919C9112978E179F0721F41296DC9325
:10106000CE931197118610868C9181508C93DF91CD
:10107000CF9108950F931F93CF93DF938C010E941C
:10108000BE0280918F0190919001892B31F483E908
:1010900091E09093900180938F0101151105F9F073
:1010A0002091910130919201020F131F073E83E0BE
:1010B0001807A8F42017310790F4C0918F01D09140
:1010C0009001C20FD31F10939201009391010E94CF
:1010D000C003CE01DF91CF911F910F910895D0E011
:1010E000C0E0F5CF089531E1FC013083319722E271
:1010F00020833197A3E3A083319760833197708376
:1011000031971082319760E8608331971082319770
:1011100062E06083319763E06083319764E06083CD
:10112000319765E06083319766E06083319767E0CF
:101130006083319768E06083319769E0608331971D
:1011400060E1608331973083319732E130833197AA
:1011500033E13083319734E13083319735E13083A7
:10116000319736E13083319737E13083319738E179
:101170003083319739E13083319730E230833197D2
:1011800031E2308331972083319723E220833197F6
:10119000408331975083319726E22083319727E2AD
:1011A0002083319728E22083319729E220833197E9
:1011B00020E32083319721E320838697089589EFE8
:1011C00090E09093890080938800E0E8F0E08081CF
:1011D0008C7F80838BE080938100EFE6F0E080815C
:1011E00082608083A0918D01B0918E01CD91CDBFA1
:1011F000DD91DEBFFF91EF91DF91CF91BF91AF9174
:101200009F918F917F916F915F914F913F912F911E
:101210001F910F91FF90EF90DF90CF90BF90AF9014
:101220009F908F907F906F905F904F903F902F9006
:101230001F900F900FBE0F90089581E008950F92B8
:101240000FB6F8940F921F9211242F923F924F9253
:101250005F926F927F928F929F92AF92BF92CF9246
:10126000DF92EF92FF920F931F932F933F934F9331
:101270005F936F937F938F939F93AF93BF93CF931E
:10128000DF93EF93FF93A0918D01B0918E010DB686
:101290000D920EB60D920E94A204A0918D01B09104
:1012A0008E01CD91CDBFDD91DEBFFF91EF91DF913A
:1012B000CF91BF91AF919F918F917F916F915F91EE
:1012C0004F913F912F911F910F91FF90EF90DF90E1
:1012D000CF90BF90AF909F908F907F906F905F90D6
:1012E0004F903F902F901F900F900FBE0F9008953A
:1012F0000F920FB6F8940F921F9211242F923F92E3
:101300004F925F926F927F928F929F92AF92BF9215
:10131000CF92DF92EF92FF920F931F932F933F9301
:101320004F935F936F937F938F939F93AF93BF93ED
:10133000CF93DF93EF93FF93A0918D01B0918E0136
:101340000DB60D920EB60D920E94C40281110E943C
:10135000A204A0918D01B0918E01CD91CDBFDD9100
:10136000DEBFFF91EF91DF91CF91BF91AF919F9140
:101370008F917F916F915F914F913F912F911F912D
:101380000F91FF90EF90DF90CF90BF90AF909F9024
:101390008F907F906F905F904F903F902F901F9015
:1013A0000F900FBE0F9008950E947809189590E055
:1013B00080E008958091AE059091AF05891B990B4F
:1013C00008959091AF058091AE052FEF3FEF9817EC
:1013D00048F4E92FF0E0E055FA4F208130E09F5FBC
:1013E0009093AF05C9010895E091AF058091AE05D6
:1013F000E81730F4F0E0E055FA4F808190E008956E
:101400008FEF9FEF08950895CF93DF93EC01E09164
:101410008705F09188053097F1F09091AF058091A4
:10142000AE059817C0F090E0292F30E02617370757
:1014300054F4DE01A20FB31F4C9120553A4FD9014D
:101440004C939F5FF1CF1092AF056093AE05CB0137
:10145000DF91CF910994DF91CF910895E0918905B3
:10146000F0918A05309729F010928D0510928C0525
:1014700009940895CF93DF931F92CDB7DEB76983A8
:1014800020918B052223F9F020918C05203258F011
:1014900021E030E0FC013383228390E080E00F9074
:1014A000DF91CF91089580918D05E82FF0E0E2570C
:1014B000FA4F998190838F5F80938D0580938C057F
:1014C00081E090E0ECCF61E0CE0101960E94ED0A50
:1014D000F7CFCF92DF92EF92FF920F931F93CF93AC
:1014E000DF937C01CB018A0120918B05222389F0B7
:1014F000EB016B01C40ED51ECC15DD0569F06991B9
:10150000D701ED91FC910190F081E02DC701099583
:10151000F3CF642F0E94ED0AC801DF91CF911F9194
:101520000F91FF90EF90DF90CF9008951092AF054C
:101530001092AE0510928D0510928C050E94CB0A78
:101540008EE29AE00E94190B84E09AE00C94140B4E
:10155000CF93C62F0E94960A8C2FCF910C94E90A44
:101560007093880560938705089570938A0560934A
:1015700089050895EBE7F5E01382128288EE93E087
:10158000A0E0B0E084839583A683B78389E091E0EF
:1015900091838083089510923D0681E080933B06FD
:1015A00010923A0661E082E10E94770C61E083E1EB
:1015B0000E94770CE9EBF0E080818E7F8083808150
:1015C0008D7F808388E48093B80085E48093BC009D
:1015D0000895880F8093BA0008952091F205260F90
:1015E0003327331F21323105ECF420913D06FC01F5
:1015F00090E080E0243069F082E00895A091F20547
:101600002191AC014C505A4FA40FB52FB11D2C9312
:101610000196861798F38091F205680F6093F205A2
:1016200080E0089581E00895909337068093360610
:1016300008959093390680933806089585ED809338
:10164000BC008091BC0084FDFCCF10923D06089543
:1016500085EC8093BC0010923D0608951F920F9276
:101660000FB60F9211242F933F934F935F936F9375
:101670007F938F939F93AF93BF93EF93FF9380914B
:10168000B900887F803609F44CC008F03FC088322A
:1016900009F4A8C018F5803109F49CC0B8F4882377
:1016A00009F4F9C0883009F495C0FF91EF91BF911A
:1016B000AF919F918F917F916F915F914F913F91EA
:1016C0002F910F900FBE0F901F901895883109F43D
:1016D00089C0803251F78093D00515C0803409F459
:1016E0009EC048F48033B9F38833F9F68093D0056F
:1016F0000E94280BDACF803509F485C0883509F4BB
:1017000096C0883491F60E941E0BCFCF883909F419
:101710008CC038F5883729F050F4883611F08037BE
:1017200021F683E080933D061092D10557C088389A
:1017300009F47BC0803919F0803809F0B6CF809168
:10174000D105803208F071C0E091D10581E08E0FA3
:101750008093D1058091BB00F0E0EE52FA4F808378
:101760003DC0803B39F0E0F4803A09F479C0883A12
:1017700009F09BCF84E080933D061092F305109210
:10178000F205E0913806F091390609958091F2054D
:1017900081110FC081E08093F2051092F40509C019
:1017A000803C09F476C0883C09F473C0883B09F09A
:1017B0007CCFE091F30581E08E0F8093F305F0E09C
:1017C000EC50FA4F80818093BB009091F30580919B
:1017D000F20529C080913C068093BB0085EC809384
:1017E000BC0063CF9091150680911406981758F5A8
:1017F000E091150681E08E0F80931506F0E0EA5E19
:10180000F94F8081E9CFE091150681E08E0F80933A
:1018100015068091BB00F0E0EA5EF94F808390915D
:101820001506809114069817C8F285E8D8CFE09184
:10183000150681E08E0F809315068091BB00F0E0C5
:10184000EA5EF94F808380913B0681115CCF81E095
:1018500080933A0684EA8093BC0010923D0625CF1F
:101860000E94280B8091D105803230F4E091D1059F
:10187000F0E0EE52FA4F10826091D10570E0E091F5
:101880003606F091370682ED95E009951092D10564
:101890000CCF85ECE0CF1092D00535CF833081F0AE
:1018A00028F4813099F08230A9F008958730A9F0AA
:1018B0008830C9F08430B1F4809180008F7D03C0FE
:1018C000809180008F7780938000089584B58F7712
:1018D00084BD089584B58F7DFBCF8091B0008F7754
:1018E0008093B00008958091B0008F7DF9CF1F9351
:1018F000CF93DF93282F30E0F901E859FF4F84910F
:10190000F901E458FF4FD491F901E057FF4FC4911A
:10191000CC23A9F0162F81110E944E0CEC2FF0E081
:10192000EE0FFF1FEC55FF4FA591B4918FB7F894C0
:10193000EC91111108C0D095DE23DC938FBFDF91AD
:10194000CF911F910895DE2BF8CF2098289A089503
:1019500083B1809581700895569A83E084BD84B5E3
:10196000806884BD85E085BD88E087BD08959C01C1
:10197000AFE1B0E00E94910E28E334E040E050E097
:101980000E946F0E285F27BD0895803128F4E82F4C
:10199000F0E0E05CF94F60830895803130F4E82F87
:1019A000F0E0E05CF94F808108958FEF089530E01A
:1019B00020E0F901E05CF94F10822F5F3F4F2031AA
:1019C0003105B9F7682F8BE795E00E94A80A63EF0D
:1019D0007CE08BE795E00E94B00A68E27DE08BE74F
:1019E00095E00C94B50ACF93DF93181619066CF5A1
:1019F000EC018BE795E00E94E10980933F0681E0CE
:101A000080933E06C130D10501F18BE795E00E943D
:101A1000DA09892BD1F080913F06803188F48BE779
:101A200095E00E94E109E0913F06F0E0E05CF94FAB
:101A3000808380913F068F5F80933F062197E2CF9E
:101A40008BE795E00E94E109F9CFDF91CF910895EE
:101A500080913E068823D1F080913F068031B0F41A
:101A6000E0913F06F0E0E05CF94F60818BE795E0A4
:101A70000E943A0A80913F068F5F80933F068091D3
:101A80003F06803140F010923F0608956FEF8BE7DC
:101A900095E00C943A0A089561E087E00C94C50C37
:101AA00086B1809581708093500690915006809108
:101AB0000301981731F080915006809303010E9432
:101AC0004C0D6091500681E00E94C50C84E690E0C8
:101AD0000E948D04E5CF80915006882351F05B9AD7
:101AE000C4E080915406882339F05A9A5C98C1600A
:101AF0000AC05B98C0E0F5CF809151068436A8F308
:101B00005C9A5A98C260809101018C1721F0C093B1
:101B100001010E944C0D6C2F83E00E94C50C61E016
:101B200085E00E94C50C82E390E00E948D04D3CF33
:101B300010E0C0E0D9E086E00E94CD0C8F3F09F0B4
:101B40003FC060E086E00E94C50C10E08091540622
:101B500081114AC0C43608F4CF5FC09351061111F9
:101B60000FC080915406882309F440C088E394E0B4
:101B70000E94B70C88E394E090935306809352063A
:101B8000809152069091530690910201981741F06E
:101B90008091520690915306809302010E944C0D51
:101BA000609152067091530682E00E94C50C6C2F22
:101BB00084E00E94C50C82E390E00E948D04BBCFBC
:101BC0009FEF980F943B10F68D9F80011124C80160
:101BD0000E94B70C109353060093520660E086E013
:101BE0000E94C50C11E0B2CFC0E0B7CFC43640F2BE
:101BF00090E080E00E94B70C1092530610925206BB
:101C0000BFCF0E94A80C80935406909154068091F7
:101C10000401981789F0809154068093040120E014
:101C200050E040E070E060E08091550690915606EB
:101C30000E943A070E944C0D6091540680E00E9479
:101C4000C50C80E590E00E948D04DBCF82E30E940A
:101C5000D70C60E086E00E94C50C60E087E00E943F
:101C6000C50C8AB18C618AB93898409A0E94A50C3B
:101C70000E94AC0C43E060E081E00E940E0790936C
:101C8000560680935506F12CE12C03E030E020E06D
:101C900044E667E171E081E09EE00E945D0102E0C0
:101CA00030E020E042E86AE171E088E99DE00E94CE
:101CB0005D0130E020E044E66FE171E08BE69DE0FD
:101CC0000E945D0101E030E020E040E563E271E068
:101CD00080E59DE00E945D010E947F02FFCFA1E2AE
:101CE0001A2EAA1BBB1BFD010DC0AA1FBB1FEE1F96
:101CF000FF1FA217B307E407F50720F0A21BB30BE1
:101D0000E40BF50B661F771F881F991F1A9469F75C
:101D100060957095809590959B01AC01BD01CF01B8
:101D20000895A29FB001B39FC001A39F700D811DB4
:101D30001124911DB29F700D811D1124911D0895D4
:101D4000EE0FFF1F0590F491E02D0994FB01DC01DB
:101D500002C001900D9241505040D8F70895F89478
:021D6000FFCFB3
:101D620003FFFFFFFF000000003A0A690AD70903D8
:101D72000ADA09E109F40949520053455256004C66
:081D82004544004C47540000E9
:00000001FF
