:100000000C9458000C9480000C9480000C94800098
:100010000C9480000C9480000C9480000C94800060
:100020000C9480000C9480000C9480000C94960B2F
:100030000C9480000C9480000C9480000C94800040
:100040000C9480000C9480000C9480000C94800030
:100050000C9480000C9480000C9480000C94800020
:100060000C94F00C0C9480000000000800020100C9
:100070000003040700000000000000000102040863
:100080001020408001020408102001020408102002
:10009000040404040404040402020202020203032E
:1000A0000303030300000000250028002B007C0C44
:1000B00011241FBECFEFD8E0DEBFCDBF11E0A0E01E
:1000C000B1E0E4E5F2E202C005900D92AC34B10774
:1000D000D9F728E0ACE4B1E001C01D92AD36B2071B
:1000E000E1F710E0C8E5D0E004C02197FE010E94CE
:1000F0001911C735D107C9F70E94AC100C9428110B
:100100000C940000E0917901F0917A0180818111D5
:1001100007C08FEF9FEF9093500180934F01089598
:10012000E0917901F0917A010580F681E02D8081DE
:100130009181F1CFBF92CF92DF92EF92FF920F9316
:100140001F93CF93DF93EC01B62EC0905801D0904F
:1001500059010091790110917A01E0907701F090B6
:1001600078018091B1019091B20102960E94D90963
:10017000CF3FDC0709F042C0BB2009F43FC0E0914B
:100180005C01F0915D01A091B101B091B2011596B1
:10019000FC93EE931497A091B101B091B2018481C8
:1001A000958117969C938E9316978091B1019091AB
:1001B000B201A481B581029613969C938E931297F7
:1001C0008091B1019091B201029695838483E09170
:1001D000B101F091B2018BE591E093878287809124
:1001E0005B018F5F80935B01DF91CF911F910F9136
:1001F000FF90EF90DF90CF90BF900895CC0DDD1D64
:10020000E091B101F091B201D383C2836091B10159
:100210007091B2016E5F7F4FCC15DD0560F4C701B0
:10022000DF91CF911F910F91FF90EF90DF90CF90D2
:10023000BF900C94A309C8010E94A30980914F01AB
:1002400090915001C817D90778F6D0935001C09308
:100250004F01CACFCF93DF9380916401811103C016
:10026000DF91CF9108950FB6F8940F92E0916A0153
:10027000F0916B01C681D781CE0102960E94D90907
:1002800080915A01815080935A018091640181507C
:10029000809364010F900FBE8F89988D0E94340A5D
:1002A000CE010E94340AD8CF0E942A0180918D018C
:1002B0008230D0F30E94E10AF7CF4F925F926F92A3
:1002C0007F928F929F92AF92BF92CF92DF92EF92E6
:1002D000FF920F93CF93DF934C015B012901C42E52
:1002E000D12CC6010E94FC093C01892B09F4CEC027
:1002F00088E290E00E94FC09EC01892B09F4C3C05C
:1003000088E2DE011D928A95E9F7788E6F8AB1E066
:10031000CB1AD1086C0C7D1CA114B10409F0C7C024
:10032000043008F003E00E8B09A36E01B2E0CB0E9F
:10033000D11CC6010E949F09CE010C960E949F0904
:10034000D987C88784E090E0801B91099D878C87BE
:10035000DB8BCA8BA201B401C3010E94350A9983C9
:100360008883E114F10419F0F701D183C0830FB63B
:10037000F8940F9280915A018F5F80935A01809177
:10038000B1019091B201892B09F0A7C0D093B201BD
:10039000C093B10180915A01813081F58DE891E0DF
:1003A0000E94910986E991E00E9491098FE991E00C
:1003B0000E94910988EA91E00E94910984E891E005
:1003C0000E9491098BE791E00E9491098EE691E0ED
:1003D0000E94910985E691E00E9491098BE591E0E8
:1003E0000E94910984E891E090937A0180937901C9
:1003F0008BE791E090937801809377018091510190
:100400008F5F80935101AE89809157018A1710F454
:10041000A093570129E02A9FD0011124A357BE4F72
:1004200011960D90BC91A02DBD83AC8314968D9137
:100430009C9115979F838E8314968D919C9115970F
:10044000FC01D382C2821596DC92CE9214979E89CB
:10045000929FF0011124E357FE4FFB87EA878081CA
:100460008F5F80830F900FBE80915601882349F0E3
:10047000E091B101F091B2018689891710F40E94D0
:10048000E10A81E004C0C3010E94340A8FEFDF91CA
:10049000CF910F91FF90EF90DF90CF90BF90AF90F2
:1004A0009F908F907F906F905F904F900895F5018F
:1004B000AE01475E5F4FC50108962191DA012D9389
:1004C000AD019F0121503109D9012C91222319F04E
:1004D000E817F90791F718A223CF809156018111EF
:1004E0008DCFE091B101F091B2019E898689981774
:1004F00008F484CFD093B201C093B1017FCFEF92C3
:10050000FF920F93CF93DF93CDB7DEB728970FB647
:10051000F894DEBF0FBECDBFA2E0B1E0FE01319680
:100520002AE031E0BF018D918193882319F02A17C9
:100530003B07C9F78DE4E82E81E0F82E00E030E0BB
:1005400020E045E584E591E00E945D01882389F083
:10055000813079F4F8942FEF3FEF309350012093DE
:100560004F018093560110925901109258010E9438
:10057000A10A8091000128960FB6F894DEBF0FBE45
:10058000CDBFDF91CF910F91FF90EF9008958091B3
:100590004C018F5F80934C010895CF92DF92EF92D0
:1005A000FF920F931F93CF93DF9380914C018111A2
:1005B000E5C0C0915801D09159016E018FEFC81A62
:1005C000D80AD0925901C0925801C114D104B9F48B
:1005D0008091790190917A01209177013091780191
:1005E00030937A0120937901909378018093770179
:1005F000809152018F5F809352010E94820080910E
:100600004F0190915001C816D906E8F480E0E091BE
:10061000B101F091B201E689D9E0ED9FF00111241A
:10062000E357FE4F9081923008F081E090915301A2
:10063000911181E0DF91CF911F910F91FF90EF9089
:10064000DF90CF90089580E069E0E0917901F0912A
:100650007A019081911107C02FEF3FEF3093500145
:1006600020934F01D4CFE0917901F0917A01058078
:10067000F681E02D0680F781E02D22813381C216BC
:10068000D30660F3C285D3852481358146815781A5
:10069000D90115965C934E93149746815781DA01E0
:1006A00013963C932E9312979F012E5F3F4F098123
:1006B0001A810217130711F45A834983138612868D
:1006C000988191509883A489B5891097F9F046854F
:1006D000578500891189EA011D830C8300891189DE
:1006E000E8015B834A831196ED90FC901297AF016D
:1006F000445F5F4FE416F50621F412961C930E93A7
:100700001197158A148A9C9191509C93A689909177
:1007100057019A1710F4A09357016A9FD001112432
:10072000A357BE4F11960D90BC91A02DB583A48305
:1007300014964D915C9115975783468314964D916D
:100740005C911597EA013B832A8315963C932E937F
:1007500014972689269FD0011124A357BE4FB38733
:10076000A2879C919F5F9C93E091B101F091B201AF
:100770009689921708F069CF81E067CF8091540184
:10078000909155010196909355018093540180E01A
:1007900051CFEF92FF920F931F93CF93DF930FB63A
:1007A000F8940F9280914C01815080934C0180917C
:1007B0004C01882351F080E00F900FBEDF91CF9164
:1007C0001F910F91FF90EF90089580915A01882317
:1007D00091F3E0907301F0907401F0E0E0E039E013
:1007E00041E080916E01811122C0EF2B11F00E9437
:1007F0008200C0915401D0915501209761F011E021
:100800000E94CD028111109353012197C9F71092D4
:1008100055011092540180915301882361F2809117
:10082000B1019091B2010E94E10A81E0C5CFD701E8
:100830001696ED91FC91A489B589668577858089A6
:100840009189EB019D838C8380899189EC017B8365
:100850006A83BF01645F7F4F11960D911C911297BF
:100860000617170721F412969C938E931197158AF9
:10087000148A8C9181508C93A285B3858481958153
:1008800066817781EC017D836C8366817781EB01E2
:100890009B838A83CF01029611960D911C9112972A
:1008A0000817190721F412967C936E9311971386FB
:1008B00012862C9121502C93A689209157012A173A
:1008C00010F4A09357013A9FD0011124A357BE4FB3
:1008D00011960D90BC91A02DB583A48314966D91B3
:1008E0007C9115977783668314966D917C9115970B
:1008F000EB019B838A8315969C938E93149796891C
:10090000939FD0011124A357BE4FB387A2878C9128
:100910008F5F8C93A091B101B091B20156968C91EA
:10092000891708F05ECF409353015BCFCF93DF93DD
:10093000EC01892B29F40E94E10ADF91CF910895FF
:100940000E94C70260E0CE010E949A000E94C90383
:10095000882389F3F2CF80914C01882321F081E034
:10096000809353010895109253012091570189E01B
:10097000422F50E0849FF001859FF00D1124E35732
:10098000FE4F9081992359F1A181B28112966D9108
:100990007C9172836183289FC001112480579E4FF0
:1009A0006817790721F4858196819283818389E094
:1009B000849FF001859FF00D1124E357FE4F0180C5
:1009C000F281E02D868197819093B2018093B101ED
:1009D000209357018091B1019091B2010895215067
:1009E000C7CFCF93DF93EB016091B1017091B2015A
:1009F000645F7F4F0E94A30961E0CE01DF91CF9138
:100A00000C949A00CF93DF93DC011596ED91FC9145
:100A10000680F781E02DA489B58986859785208990
:100A20003189EC013D832C83C089D1899B838A83E2
:100A3000CF010C9611962D913C91129728173907EA
:100A400021F41296DC93CE931197158A148A2C9177
:100A500021502C9320914C01211157C0A285B385C0
:100A60008481958126813781EC013D832C83C68169
:100A7000D7819B838A83CF01029611962D913C9159
:100A800012972817390721F41296DC93CE93119709
:100A9000138612862C9121502C93C68920915701E0
:100AA0002C1710F4C093570129E02C9FE00111246A
:100AB000C357DE4F0980DA81C02DD583C4834C81B2
:100AC0005D8157834683AC81BD8113969C938E9341
:100AD00012979D838C83A689A29FD0011124A357CE
:100AE000BE4FB387A2878C918F5F8C93A091B10189
:100AF000B091B201968956968C91891730F581E0B4
:100B000080935301DF91CF910895A0916F01B0912F
:100B10007001B787A68714962D913C911597318B5C
:100B2000208B1496CD91DC9115979B838A83159623
:100B30009C938E9314978EE691E0958B848B809195
:100B40006E018F5F80936E01D1CF80E0DBCF20916B
:100B50005201FC01208320915801309159013283C8
:100B600021830895CF93DF930FB6F8940F924091AD
:100B7000580150915901DB012D913C912F3F3207D3
:100B800001F1EC01E981FA81A0915201B881BA1713
:100B900061F04E175F0748F0FB011182108281E07F
:100BA0000F900FBEDF91CF9108954E1B5F0B421740
:100BB000530790F7241B350BDB012D933C930E94C8
:100BC000A70580E0EDCF81E08093530108950F9356
:100BD0001F93CF93DF93EC01892B09F474C08E89A6
:100BE000A091B101B091B20156969C91891708F07D
:100BF00060C02C853D8537FD0CC0A091B101B0913E
:100C0000B20156969C9124E030E0291B31093D87C2
:100C10002C8729E0829FC001112483579E4F2A858B
:100C20003B8528173907E9F58E010E5F1F4FC80174
:100C30000E94D909E091B101F091B201E689EE8BF1
:100C4000809157018E1710F4E093570189E08E9F31
:100C5000F0011124E357FE4FA181B281BD83AC8323
:100C600014962D913C9115973F832E831496ED9108
:100C7000FC9115971383028315961C930E9314977A
:100C8000EE89E89FF0011124E357FE4FFB87EA87C6
:100C900080818F5F808381E0DF91CF911F910F91E1
:100CA0000895A091B101B091B20156968C918E8BAE
:100CB000F2CFA091B101B091B20181E029A1569685
:100CC0009C91291748F380E0E7CF0F931F93CF93B0
:100CD000DF93EC01892B31F480E0DF91CF911F91FC
:100CE0000F9108958AA181508AA32E8999A129176D
:100CF00099F38111F1CF8E010E5F1F4FC8010E9441
:100D0000D90989A18E8B482F50E024E030E0241BC4
:100D1000350B3D872C8790915701981710F48093DD
:100D2000570189E0849FD001859FB00D1124A357FE
:100D3000BE4F11960D90BC91A02DBD83AC8314962F
:100D40002D913C9115973F832E831496ED91FC9144
:100D500015971383028315961C930E931497EE89AF
:100D6000E89FF0011124E357FE4FFB87EA8780815B
:100D70008F5F808381E0B1CF0F931F93CF93DF9379
:100D8000EC01892B09F456C099A1961708F4962F07
:100D90008E89891709F44EC02AA1213009F04AC072
:100DA0009E8B2C853D8537FD06C024E030E0291B55
:100DB00031093D872C8729E0829FC0011124835788
:100DC0009E4F2A853B8528173907A1F58E010E5FB6
:100DD0001F4FC8010E94D909AE89809157018A1717
:100DE00010F4A093570189E08A9FD0011124A357E2
:100DF000BE4F11960D90BC91A02DBD83AC8314966F
:100E00002D913C9115973F832E831496ED91FC9183
:100E100015971383028315961C930E931497EE89EE
:100E2000E89FF0011124E357FE4FFB87EA8780819A
:100E30008F5F8083DF91CF911F910F9108958091F3
:100E4000B1019091B201009721F0FC0122A12F5F26
:100E500022A308950FB6F8940F92FC01928D0F9083
:100E60000FBE81E0911180E008950F931F93CF93FF
:100E7000DF93EC01042F1A8D4C8D411111C0888134
:100E80009981892B29F58C819D810E9465061D829F
:100E90001C821F5F1A8FDF91CF911F910F910895D0
:100EA00050E0011117C08A819B810E941F118C8D17
:100EB0002A813B81820F932F911D9B838A832C81F2
:100EC0003D818217930720F0888199819B838A83D3
:100ED00080E0DFCF8E819F810E941F118C8D90E07A
:100EE0009195819591092E813F81280F391F3F836C
:100EF0002E83488159812417350730F42C813D8198
:100F0000820F931F9F838E83023011F7112301F309
:100F10001150DECFEF92FF921F93CF93DF93EC013E
:100F20000FB6F8940F921E8D7C0181E1E80EF11C42
:100F30001116C4F08FEF8E8F0F900FBE0FB6F8947E
:100F40000F921D8D7E0188E0E80EF11C1116ACF0A9
:100F50008FEF8D8F0F900FBEDF91CF911F91FF907C
:100F6000EF9008958989882329F3C7010E9402051B
:100F700081110E94E3051150DBCF8885882341F35E
:100F8000C7010E94020581110E94E3051150DECFC6
:100F9000CF93DF93009709F43FC0FC01238D2223F8
:100FA00009F43AC0EC01448D0FB6F8940F92808199
:100FB0009181FC01249FE00DF11D1124FD83EC8340
:100FC0001A8E9B838A832150330B429FF001439FEB
:100FD000F00D11248E0F9F1F9F838E838FEF8D8FB7
:100FE0008E8F611110C08885882339F0CE01089654
:100FF0000E94020581110E94E10A0F900FBE81E05C
:10100000DF91CF910895CE0108960E949109CE01FB
:1010100041960E949109F1CF80E0F2CF0F931F9388
:10102000CF93DF93811108C0D0E0C0E0CE01DF9103
:10103000CF911F910F910895869F90011124213E19
:10104000310594F7162F082FC9014F960E94FC090D
:10105000EC01009749F3111109C0998388830B8F24
:101060001C8F61E0CE010E94C807E0CF4F969983A4
:101070008883F5CFAF92BF92CF92DF92FF920F930A
:101080001F93CF93DF9300D000D01F92CDB7DEB770
:101090008C016B015D834C83F22E80E0580198E057
:1010A000A90EB11C0FB6F8940F92F801228D938D02
:1010B000291718F0F2E0FF1222C04F2DB601C80127
:1010C0000E943507F8019189992321F0C8014196C2
:1010D0000E94020581110E94E10A0F900FBE81E07B
:1010E0000F900F900F900F900F90DF91CF911F9165
:1010F0000F91FF90DF90CF90BF90AF9008952C811B
:101100003D81232B21F40F900FBE80E0E9CF8111A8
:1011100004C0CE0101960E94A7050F900FBE0E9449
:10112000C7020FB6F8940F92F801858D8F3F09F42E
:10113000158EF801868D8F3F09F4168E0F900FBE25
:10114000BE016C5F7F4FCE0101960E94B2058111F6
:1011500020C00FB6F8940F92F801928D0F900FBE39
:10116000838D981310C06C817D81C5010E94F104AC
:10117000C8010E948A070E94C903811102C00E940F
:10118000E10A81E08FCFC8010E948A070E94C9034B
:10119000F8CFC8010E948A070E94C903B6CFCF9238
:1011A000DF92FF920F931F93CF93DF9300D000D075
:1011B0001F92CDB7DEB78C017D836C83F12C90E05C
:1011C000680181E1C80ED11C0FB6F8940F92D801C6
:1011D0005A968C915A97882359F181505A968C933C
:1011E0005A978D919C91892B29F40E941F07F80131
:1011F00095838483D80118968C91882339F0C8018F
:1012000008960E94020581110E94E10A0F900FBE0C
:10121000FF24F3948F2D0F900F900F900F900F904D
:10122000DF91CF911F910F91FF90DF90CF900895A4
:101230002C813D81232B21F40F900FBEF12CEACF9E
:10124000911104C0CE0101960E94A7050F900FBE18
:101250000E94C7020FB6F8940F92F801858D8F3F58
:1012600009F4158ED8015E968C915E978F3F11F42C
:101270005E961C920F900FBEBE016C5F7F4FCE0139
:1012800001960E94B20581112AC0C8010E942A0756
:101290008823F9F0F80180819181892B51F40FB6F0
:1012A000F8940F92848195810E94E705F82E0F90A3
:1012B0000FBE6C817D81C6010E94F104C8010E94AD
:1012C0008A070E94C903811102C00E94E10A91E0CD
:1012D0007BCFC8010E948A070E94C903F8CFC801CA
:1012E0000E948A070E94C903C8010E942A07882316
:1012F00071F3FF2009F48ECF0FB6F8940F92F80126
:10130000818960E0882331F00688F789E02D8081AB
:1013100064E0681BD80114968D919C910E94BC06D4
:101320008BCFFC010396928381832FEF3FEF3483B1
:101330002383968385839087878310820895FC0199
:101340001186108608950F931F93CF93DF938C011E
:10135000FB0180819181D80113968F3F9807F1F4AA
:10136000E801AF81B88512968D919C911397938374
:101370008283EC01FD83EC83B583A4831396FC93F5
:10138000EE93129711870087F80180818F5F808329
:10139000DF91CF911F910F910895D90112962D9150
:1013A0003C911397E9014881598184179507A8F763
:1013B000DACFCF93DF93FC01A085B1858281938141
:1013C00024813581EC013D832C83C481D5819B83AD
:1013D0008A8311968D919C9112978E179F0721F405
:1013E0001296DC93CE931197118610868C918150C2
:1013F0008C93DF91CF9108950F931F93CF93DF9339
:101400008C010E94C7028091B3019091B401892B95
:1014100031F487EB91E09093B4018093B30101150F
:101420001105F9F02091B5013091B601020F131F9B
:101430000B3D85E01807A8F42017310790F4C09100
:10144000B301D091B401C20FD31F1093B601009322
:10145000B5010E94C903CE01DF91CF911F910F9179
:101460000895D0E0C0E0F5CF089531E1FC0130836C
:10147000319722E220833197A3E3A08331976083E1
:101480003197708331971082319760E8608331978C
:101490001082319762E06083319763E06083319717
:1014A00064E06083319765E06083319766E0608334
:1014B000319767E06083319768E06083319769E036
:1014C0006083319760E1608331973083319732E1F7
:1014D0003083319733E13083319734E13083319772
:1014E00035E13083319736E13083319737E130830E
:1014F000319738E13083319739E13083319730E2E9
:101500003083319731E2308331972083319723E262
:1015100020833197408331975083319726E220838F
:10152000319727E22083319728E22083319729E2FF
:101530002083319720E32083319721E3208386970E
:10154000089589EF90E09093890080938800E0E807
:10155000F0E080818C7F80838BE080938100EFE6D8
:10156000F0E0808182608083A091B101B091B201EE
:10157000CD91CDBFDD91DEBFFF91EF91DF91CF9196
:10158000BF91AF919F918F917F916F915F914F919B
:101590003F912F911F910F91FF90EF90DF90CF908F
:1015A000BF90AF909F908F907F906F905F904F9083
:1015B0003F902F901F900F900FBE0F90089581E0E5
:1015C00008950F920FB6F8940F921F9211242F9244
:1015D0003F924F925F926F927F928F929F92AF92C3
:1015E000BF92CF92DF92EF92FF920F931F932F93B0
:1015F0003F934F935F936F937F938F939F93AF939B
:10160000BF93CF93DF93EF93FF93A091B101B0917C
:10161000B2010DB60D920EB60D920E94AB04A091D0
:10162000B101B091B201CD91CDBFDD91DEBFFF918F
:10163000EF91DF91CF91BF91AF919F918F917F916A
:101640006F915F914F913F912F911F910F91FF905B
:10165000EF90DF90CF90BF90AF909F908F907F9052
:101660006F905F904F903F902F901F900F900FBE04
:101670000F9008950F920FB6F8940F921F921124B5
:101680002F923F924F925F926F927F928F929F9292
:10169000AF92BF92CF92DF92EF92FF920F931F9380
:1016A0002F933F934F935F936F937F938F939F936A
:1016B000AF93BF93CF93DF93EF93FF93A091B101CB
:1016C000B091B2010DB60D920EB60D920E94CD02F0
:1016D00081110E94AB04A091B101B091B201CD91F2
:1016E000CDBFDD91DEBFFF91EF91DF91CF91BF9133
:1016F000AF919F918F917F916F915F914F913F91AA
:101700002F911F910F91FF90EF90DF90CF90BF909E
:10171000AF909F908F907F906F905F904F903F9091
:101720002F901F900F900FBE0F9008950E943A0BBC
:10173000189590E080E008958091C6079091C707C2
:10174000891B990B08959091C7078091C6072FEFC9
:101750003FEF981748F4E92FF0E0E853F84F208165
:1017600030E09F5F9093C707C9010895E091C707D4
:101770008091C607E81730F4F0E0E853F84F808115
:1017800090E008958FEF9FEF08950895CF93DF9332
:10179000EC01E0919F07F091A0073097F1F0909154
:1017A000C7078091C6079817C0F090E0292F30E056
:1017B0002617370754F4DE01A20FB31F4C912853AC
:1017C000384FD9014C939F5FF1CF1092C7076093B8
:1017D000C607CB01DF91CF910994DF91CF91089596
:1017E000E091A107F091A207309729F01092A50788
:1017F0001092A40709940895CF93DF931F92CDB759
:10180000DEB769832091A3072223F9F02091A40772
:10181000203258F021E030E0FC013383228390E055
:1018200080E00F90DF91CF9108958091A507E82F78
:10183000F0E0EA55F84F998190838F5F8093A50778
:101840008093A40781E090E0ECCF61E0CE010196A7
:101850000E94AF0CF7CFCF92DF92EF92FF920F93DF
:101860001F93CF93DF937C01CB018A012091A307C3
:10187000222389F0EB016B01C40ED51ECC15DD05CA
:1018800069F06991D701ED91FC910190F081E02D13
:10189000C7010995F3CF642F0E94AF0CC801DF91F7
:1018A000CF911F910F91FF90EF90DF90CF9008950F
:1018B0001092C7071092C6071092A5071092A407AE
:1018C0000E948D0C80EF9BE00E94DB0C86EC9BE07D
:1018D0000C94D60CCF93C62F0E94580C8C2FCF910E
:1018E0000C94AB0C7093A00760939F0708957093BE
:1018F000A2076093A1070895E3E9F7E0138212823B
:1019000088EE93E0A0E0B0E084839583A683B7835C
:101910008BE091E09183808308951092550881E0D7
:10192000809353081092520861E082E10E94390EC0
:1019300061E083E10E94390EE9EBF0E080818E7F67
:10194000808380818D7F808388E48093B80085E4E4
:101950008093BC000895880F8093BA000895209169
:101960000A08260F3327331F21323105ECF420916A
:101970005508FC0190E080E0243069F082E0089591
:10198000A0910A082191AC01445F574FA40FB52FD5
:10199000B11D2C930196861798F380910A08680F61
:1019A00060930A0880E0089581E0089590934F08BD
:1019B00080934E080895909351088093500808959D
:1019C00085ED8093BC008091BC0084FDFCCF10921B
:1019D0005508089585EC8093BC0010925508089531
:1019E0001F920F920FB60F9211242F933F934F9394
:1019F0005F936F937F938F939F93AF93BF93EF9377
:101A0000FF938091B900887F803609F44CC008F0BC
:101A10003FC0883209F4A8C018F5803109F49CC091
:101A2000B8F4882309F4F9C0883009F495C0FF910F
:101A3000EF91BF91AF919F918F917F916F915F9146
:101A40004F913F912F910F900FBE0F901F901895BF
:101A5000883109F489C0803251F78093E80715C0B6
:101A6000803409F49EC048F48033B9F38833F9F622
:101A70008093E8070E94EA0CDACF803509F485C02C
:101A8000883509F496C0883491F60E94E00CCFCFD7
:101A9000883909F48CC038F5883729F050F4883635
:101AA00011F0803721F683E0809355081092E90702
:101AB00057C0883809F47BC0803919F0803809F0A4
:101AC000B6CF8091E907803208F071C0E091E90754
:101AD00081E08E0F8093E9078091BB00F0E0E65132
:101AE000F84F80833DC0803B39F0E0F4803A09F440
:101AF00079C0883A09F09BCF84E080935508109212
:101B00000B0810920A08E0915008F09151080995CD
:101B100080910A0881110FC081E080930A08109219
:101B20000C0809C0803C09F476C0883C09F473C0F5
:101B3000883B09F07CCFE0910B0881E08E0F809309
:101B40000B08F0E0E45FF74F80818093BB00909139
:101B50000B0880910A0829C0809154088093BB002B
:101B600085EC8093BC0063CF90912D0880912C0868
:101B7000981758F5E0912D0881E08E0F80932D087D
:101B8000F0E0E25DF74F8081E9CFE0912D0881E040
:101B90008E0F80932D088091BB00F0E0E25DF74F3F
:101BA000808390912D0880912C089817C8F285E8C1
:101BB000D8CFE0912D0881E08E0F80932D08809181
:101BC000BB00F0E0E25DF74F808380915308811104
:101BD0005CCF81E08093520884EA8093BC0010922D
:101BE000550825CF0E94EA0C8091E907803230F435
:101BF000E091E907F0E0E651F84F10826091E907C3
:101C000070E0E0914E08F0914F088AEE97E0099558
:101C10001092E9070CCF85ECE0CF1092E80735CFA2
:101C2000833081F028F4813099F08230A9F0089552
:101C30008730A9F08830C9F08430B1F480918000F9
:101C40008F7D03C0809180008F77809380000895FE
:101C500084B58F7784BD089584B58F7DFBCF809147
:101C6000B0008F778093B00008958091B0008F7D91
:101C7000F9CF1F93CF93DF93282F30E0F901E85974
:101C8000FF4F8491F901E458FF4FD491F901E057D7
:101C9000FF4FC491CC23A9F0162F81110E94100E82
:101CA000EC2FF0E0EE0FFF1FEC55FF4FA591B49124
:101CB0008FB7F894EC91111108C0D095DE23DC9316
:101CC0008FBFDF91CF911F910895DE2BF8CF209821
:101CD000289A089583B1809581700895853B08F016
:101CE00084EB282F30E0AFE0B0E00E940A1124EB33
:101CF00030E040E050E00E94E810205F27BD0895EA
:101D0000569A83E084BD84B5806884BD85E085BD36
:101D100080E00C946E0E3C98449A08953C9A449846
:101D200008953D98459A08953D9A459808950E94D2
:101D30008B0E0E94910E8AE18A95F1F700C00E94F5
:101D40008E0E8AE18A95F1F700C00E94940E8AE116
:101D50008A95F1F700C008950E948E0E8AE18A9557
:101D6000F1F700C00E94910E8AE18A95F1F700C058
:101D70000E948B0E8AE18A95F1F700C00895CF93F7
:101D8000DF93D82FC8E0D7FF2AC00E948B0E8AE1CC
:101D90008A95F1F700C00E94910E8AE18A95F1F7C9
:101DA00000C00E94940E8AE18A95F1F700C0DD0F11
:101DB000C15049F70E948B0E8AE18A95F1F700C065
:101DC0000E94910E8AE18A95F1F700C00E94940E5C
:101DD0008AE18A95F1F700C0DF91CF9108950E94C2
:101DE0008E0ED5CFCF93C82F0E94970E8CE70E94FE
:101DF000BF0E80E80E94BF0E8C2F0E94BF0ECF91B5
:101E00000C94AC0E0E948B0E0E94910E2FEF80E777
:101E100092E0215080409040E1F700C0000088E24D
:101E20000E94F20E8FE19EE40197F1F700C00000DE
:101E30008CE00E94F20E8FE19EE40197F1F700C062
:101E4000000081E00E94F20E8FE19EE40197F1F71D
:101E500000C0000086E00E94F20E8FE19EE4019730
:101E6000F1F700C00000089581E00E94F20E8FE3B8
:101E70009FE10197F1F700C000000895611160E44F
:101E8000860F80680E94F20E87EC90E00197F1F7D0
:101E900000C0000008950F931F93CF938C01F801A9
:101EA000C1918F01C11104C0CF911F910F9108956D
:101EB0000E94970E8CE70E94BF0E80E40E94BF0E26
:101EC0008C2F0E94BF0E0E94AC0E87EC90E0019711
:101ED000F1F700C00000E3CF803128F4E82FF0E0F4
:101EE000E85AF74F60830895803130F4E82FF0E02E
:101EF000E85AF74F808108958FEF089530E020E091
:101F0000F901E85AF74F10822F5F3F4F203131051A
:101F1000B9F7682F83E997E00E946A0C6AE97FE0CD
:101F200083E997E00E94720C6FEC7FE083E997E011
:101F30000C94770CCF93DF93181619066CF5EC010F
:101F400083E997E00E94A30B8093570881E0809378
:101F50005608C130D10501F183E997E00E949C0B3E
:101F6000892BD1F080915708803188F483E997E07C
:101F70000E94A30BE0915708F0E0E85AF74F8083E6
:101F8000809157088F5F809357082197E2CF83E9AC
:101F900097E00E94A30BF9CFDF91CF910895809134
:101FA00056088823D1F0809157088031B0F4E09131
:101FB0005708F0E0E85AF74F608183E997E00E9404
:101FC000FC0B809157088F5F8093570880915708CA
:101FD000803140F01092570808956FEF83E997E041
:101FE0000C94FC0B08950E94020F0E94340F60E0D5
:101FF00080E00E943E0F89E191E00E944B0F6FEF5D
:102000007FEF80916B0890916C080E94CF080E942E
:10201000340F60E080E00E943E0F80916A088823C0
:1020200019F087E291E0E9CF84E391E0E6CF00E0A8
:10203000C0E066B1862F8170F82E6095162F117062
:1020400086E00E94740FD82F8F3FD1F46FEF86E0A7
:102050000E946C0F00E0F1101FC05B9AD4E08091E9
:102060006A08011144C08823D1F05A9A5C98D16063
:1020700084EB0E946E0E84EB80936908C0E01BC065
:10208000853B48F70E946E0ED09369086FEF86E09B
:102090000E946C0F01E0DFCF5B98D0E0E0CFC83248
:1020A00010F4CF5F08C05C9A5A98D26080E00E941A
:1020B0006E0E10926908C0936808612F81E00E943B
:1020C0006C0F6091690882E00E946C0F6D2F83E0B5
:1020D0000E946C0F6C2F84E00E946C0F61E085E021
:1020E0000E946C0F82E390E00E949604A2CF8823A6
:1020F00051F05A9A5C98D16080916A088111BECFE4
:10210000C832C8F6CECFC832B8F35C9A5A98D260BB
:10211000F3CF0E946A0E80936A0890916A088091BA
:102120000101981779F080916A088093010120E0FD
:1021300050E040E070E060E080916B0890916C08A6
:102140000E943A0860916A0880E00E946C0F80E566
:1021500090E00E949604DDCF82E30E947E0F6FEF35
:1021600086E00E946C0F8AB18C618AB93898409AD7
:102170000E94670E0E94800E43E060E081E00E94B2
:102180000E0890936C0880936B08F12CE12C03E00F
:1021900030E020E046E96EE371E089E890E10E94DA
:1021A0005D0102E030E020E048EC62E471E087E1AC
:1021B00090E10E945D0101E030E020E048EC67E43E
:1021C00071E083EF9FE00E945D010E947F02FFCFDC
:1021D000A1E21A2EAA1BBB1BFD010DC0AA1FBB1F2B
:1021E000EE1FFF1FA217B307E407F50720F0A21B9D
:1021F000B30BE40BF50B661F771F881F991F1A940A
:1022000069F760957095809590959B01AC01BD0133
:10221000CF010895A29FB001B39FC001A39F700D8D
:10222000811D1124911DB29F700D811D1124911DDE
:102230000895EE0FFF1F0590F491E02D0994FB0126
:10224000DC0102C001900D9241505040D8F7089532
:04225000F894FFCF30
:1022540003FF49444C450000000000FC0B2B0C9983
:102264000BC50B9C0BA30BB60B5061726B696E67AD
:10227400205265616479004361722064657465630A
:1022840074656400467265652073706F7400414321
:0C22940051004354524C004C43440000E5
:00000001FF
