:100000000C9435000C945D000C945D000C94800EF3
:100010000C945D000C945D000C945D000C945D00EC
:100020000C945D000C945D000C945D000C94730BBB
:100030000C945D000C945D000C945D000C945D00CC
:100040000C945D000C945D000C945D000C945D00BC
:100050000C945D000C945D000C945D000C945D00AC
:100060000C94470C0C945D00FF0B11241FBECFEFC6
:10007000D8E0DEBFCDBF11E0A0E0B1E0ECE4FFE1ED
:1000800002C005900D92AC34B107D9F728E0ACE47A
:10009000B1E001C01D92AA36B207E1F710E0C5E356
:1000A000D0E004C02197FE010E94950FC433D10710
:1000B000C9F70E942C0F0C94A40F0C940000E0913F
:1000C0007901F0917A018081811107C08FEF9FEF54
:1000D0009093500180934F010895E0917901F09140
:1000E0007A010580F681E02D80819181F1CFBF9268
:1000F000CF92DF92EF92FF920F931F93CF93DF93F4
:10010000EC01B62EC0905801D090590100917901B0
:1001100010917A01E0907701F09078018091B1011F
:100120009091B20102960E94B609CF3FDC0709F018
:1001300042C0BB2009F43FC0E0915C01F0915D0139
:10014000A091B101B091B2011596FC93EE93149772
:10015000A091B101B091B2018481958117969C93D1
:100160008E9316978091B1019091B201A481B581CF
:10017000029613969C938E9312978091B101909161
:10018000B201029695838483E091B101F091B201AE
:100190008BE591E09387828780915B018F5F8093ED
:1001A0005B01DF91CF911F910F91FF90EF90DF9056
:1001B000CF90BF900895CC0DDD1DE091B101F0917D
:1001C000B201D383C2836091B1017091B2016E5FBD
:1001D0007F4FCC15DD0560F4C701DF91CF911F91F2
:1001E0000F91FF90EF90DF90CF90BF900C9480091B
:1001F000C8010E94800980914F0190915001C81759
:10020000D90778F6D0935001C0934F01CACFCF934E
:10021000DF9380916401811103C0DF91CF91089534
:100220000FB6F8940F92E0916A01F0916B01C681CC
:10023000D781CE0102960E94B60980915A01815061
:1002400080935A01809164018150809364010F90E2
:100250000FBE8F89988D0E94110ACE010E94110A4B
:10026000D8CF0E94070180918D018230D0F30E9487
:10027000BE0AF7CF4F925F926F927F928F929F92BA
:10028000AF92BF92CF92DF92EF92FF920F93CF93F4
:10029000DF934C015B012901C42ED12CC6010E94C1
:1002A000D9093C01892B09F4CEC088E290E00E9474
:1002B000D909EC01892B09F4C3C088E2DE011D9243
:1002C0008A95E9F7788E6F8AB1E0CB1AD1086C0C69
:1002D0007D1CA114B10409F0C7C0043008F003E08C
:1002E0000E8B09A36E01B2E0CB0ED11CC6010E9499
:1002F0007C09CE010C960E947C09D987C88784E0CE
:1003000090E0801B91099D878C87DB8BCA8BA201B3
:10031000B401C3010E94120A99838883E114F10495
:1003200019F0F701D183C0830FB6F8940F92809132
:100330005A018F5F80935A018091B1019091B2016F
:10034000892B09F0A7C0D093B201C093B10180916D
:100350005A01813081F58DE891E00E946E0986E9AD
:1003600091E00E946E098FE991E00E946E0988EA8F
:1003700091E00E946E0984E891E00E946E098BE78B
:1003800091E00E946E098EE691E00E946E0985E67A
:1003900091E00E946E098BE591E00E946E0984E86D
:1003A00091E090937A01809379018BE791E09093AB
:1003B000780180937701809151018F5F8093510183
:1003C000AE89809157018A1710F4A093570129E054
:1003D0002A9FD0011124A357BE4F11960D90BC91B6
:1003E000A02DBD83AC8314968D919C9115979F830E
:1003F0008E8314968D919C911597FC01D382C282B5
:100400001596DC92CE9214979E89929FF00111244A
:10041000E357FE4FFB87EA8780818F5F80830F90D1
:100420000FBE80915601882349F0E091B101F0910F
:10043000B2018689891710F40E94BE0A81E004C0C7
:10044000C3010E94110A8FEFDF91CF910F91FF90AE
:10045000EF90DF90CF90BF90AF909F908F907F9064
:100460006F905F904F900895F501AE01475E5F4F2A
:10047000C50108962191DA012D93AD019F0121500C
:100480003109D9012C91222319F0E817F90791F7C6
:1004900018A223CF8091560181118DCFE091B10137
:1004A000F091B2019E898689981708F484CFD09381
:1004B000B201C093B1017FCFEF92FF920F93CF9320
:1004C000DF93CDB7DEB728970FB6F894DEBF0FBE27
:1004D000CDBFA3E0B1E0FE0131962BE031E0BF01DA
:1004E0008D918193882319F02A173B07C9F78DE472
:1004F000E82E81E0F82E00E030E020E045E581E3E1
:1005000091E00E943A01882389F0813079F4F894CF
:100510002FEF3FEF3093500120934F01809356010E
:1005200010925901109258010E947E0A8091000198
:1005300028960FB6F894DEBF0FBECDBFDF91CF91E6
:100540000F91FF90EF90089580914C018F5F809301
:100550004C010895CF92DF92EF92FF920F931F9379
:10056000CF93DF9380914C018111E5C0C091580178
:10057000D09159016E018FEFC81AD80AD092590153
:10058000C0925801C114D104B9F4809179019091BD
:100590007A01209177013091780130937A0120938C
:1005A00079019093780180937701809152018F5F58
:1005B000809352010E945F0080914F019091500101
:1005C000C816D906E8F480E0E091B101F091B201DB
:1005D000E689D9E0ED9FF0011124E357FE4F9081A9
:1005E000923008F081E090915301911181E0DF9108
:1005F000CF911F910F91FF90EF90DF90CF900895D2
:1006000080E069E0E0917901F0917A0190819111A7
:1006100007C02FEF3FEF3093500120934F01D4CF0D
:10062000E0917901F0917A010580F681E02D068054
:10063000F781E02D22813381C216D30660F3C28593
:10064000D3852481358146815781D90115965C93E4
:100650004E93149746815781DA0113963C932E935B
:1006600012979F012E5F3F4F09811A8102171307CE
:1006700011F45A8349831386128698819150988386
:10068000A489B5891097F9F04685578500891189A5
:10069000EA011D830C8300891189E8015B834A8389
:1006A0001196ED90FC901297AF01445F5F4FE416F6
:1006B000F50621F412961C930E931197158A148A4D
:1006C0009C9191509C93A689909157019A1710F490
:1006D000A09357016A9FD0011124A357BE4F1196D2
:1006E0000D90BC91A02DB583A48314964D915C917F
:1006F00015975783468314964D915C911597EA019F
:100700003B832A8315963C932E9314972689269F24
:10071000D0011124A357BE4FB387A2879C919F5F3E
:100720009C93E091B101F091B2019689921708F083
:1007300069CF81E067CF8091540190915501019676
:10074000909355018093540180E051CFEF92FF9236
:100750000F931F93CF93DF930FB6F8940F9280916E
:100760004C01815080934C0180914C01882351F0C1
:1007700080E00F900FBEDF91CF911F910F91FF90FE
:10078000EF90089580915A01882391F3E0907301CE
:10079000F0907401F0E0E0E039E041E080916E011A
:1007A000811122C0EF2B11F00E945F00C091540113
:1007B000D0915501209761F011E00E94AA028111A9
:1007C000109353012197C9F71092550110925401CB
:1007D00080915301882361F28091B1019091B2011F
:1007E0000E94BE0A81E0C5CFD7011696ED91FC911B
:1007F000A489B5896685778580899189EB019D8378
:100800008C8380899189EC017B836A83BF01645F5B
:100810007F4F11960D911C9112970617170721F41F
:1008200012969C938E931197158A148A8C918150FD
:100830008C93A285B3858481958166817781EC0153
:100840007D836C8366817781EB019B838A83CF01F3
:10085000029611960D911C9112970817190721F411
:1008600012967C936E931197138612862C912150C9
:100870002C93A689209157012A1710F4A0935701B1
:100880003A9FD0011124A357BE4F11960D90BC91F1
:10089000A02DB583A48314966D917C9115977783D1
:1008A000668314966D917C911597EB019B838A83E7
:1008B00015969C938E9314979689939FD00111243B
:1008C000A357BE4FB387A2878C918F5F8C93A09163
:1008D000B101B091B20156968C91891708F05ECFA4
:1008E000409353015BCFCF93DF93EC01892B29F425
:1008F0000E94BE0ADF91CF9108950E94A40260E099
:10090000CE010E9477000E94A603882389F3F2CFCC
:1009100080914C01882321F081E080935301089558
:10092000109253012091570189E0422F50E0849F9B
:10093000F001859FF00D1124E357FE4F908199231C
:1009400059F1A181B28112966D917C91728361837C
:10095000289FC001112480579E4F6817790721F402
:10096000858196819283818389E0849FF001859FB0
:10097000F00D1124E357FE4F0180F281E02D8681B6
:1009800097819093B2018093B10120935701809198
:10099000B1019091B20108952150C7CFCF93DF9359
:1009A000EB016091B1017091B201645F7F4F0E94D1
:1009B000800961E0CE01DF91CF910C947700CF9355
:1009C000DF93DC011596ED91FC910680F781E02D17
:1009D000A489B5898685978520893189EC013D8375
:1009E0002C83C089D1899B838A83CF010C96119671
:1009F0002D913C9112972817390721F41296DC9318
:100A0000CE931197158A148A2C9121502C93209102
:100A10004C01211157C0A285B3858481958126811F
:100A20003781EC013D832C83C681D7819B838A83E8
:100A3000CF01029611962D913C91129728173907F4
:100A400021F41296DC93CE931197138612862C9183
:100A500021502C93C689209157012C1710F4C09374
:100A6000570129E02C9FE0011124C357DE4F098074
:100A7000DA81C02DD583C4834C815D815783468341
:100A8000AC81BD8113969C938E9312979D838C832A
:100A9000A689A29FD0011124A357BE4FB387A28776
:100AA0008C918F5F8C93A091B101B091B201968926
:100AB00056968C91891730F581E080935301DF9130
:100AC000CF910895A0916F01B0917001B787A6876B
:100AD00014962D913C911597318B208B1496CD91C6
:100AE000DC9115979B838A8315969C938E9314971C
:100AF0008EE691E0958B848B80916E018F5F809361
:100B00006E01D1CF80E0DBCF20915201FC01208328
:100B10002091580130915901328321830895CF9358
:100B2000DF930FB6F8940F924091580150915901FC
:100B3000DB012D913C912F3F320701F1EC01E9815E
:100B4000FA81A0915201B881BA1761F04E175F0780
:100B500048F0FB011182108281E00F900FBEDF91FF
:100B6000CF9108954E1B5F0B4217530790F7241B3C
:100B7000350BDB012D933C930E94840580E0EDCF83
:100B800081E08093530108950F931F93CF93DF93D8
:100B9000EC01892B09F474C08E89A091B101B09148
:100BA000B20156969C91891708F060C02C853D854E
:100BB00037FD0CC0A091B101B091B20156969C9145
:100BC00024E030E0291B31093D872C8729E0829FF2
:100BD000C001112483579E4F2A853B85281739076A
:100BE000E9F58E010E5F1F4FC8010E94B609E09122
:100BF000B101F091B201E689EE8B809157018E1719
:100C000010F4E093570189E08E9FF0011124E3571F
:100C1000FE4FA181B281BD83AC8314962D913C918E
:100C200015973F832E831496ED91FC9115971383AE
:100C3000028315961C930E931497EE89E89FF0019A
:100C40001124E357FE4FFB87EA8780818F5F808303
:100C500081E0DF91CF911F910F910895A091B10193
:100C6000B091B20156968C918E8BF2CFA091B101CA
:100C7000B091B20181E029A156969C91291748F3C1
:100C800080E0E7CF0F931F93CF93DF93EC01892B85
:100C900031F480E0DF91CF911F910F9108958AA1E7
:100CA00081508AA32E8999A1291799F38111F1CF37
:100CB0008E010E5F1F4FC8010E94B60989A18E8B5D
:100CC000482F50E024E030E0241B350B3D872C8773
:100CD00090915701981710F48093570189E0849FF1
:100CE000D001859FB00D1124A357BE4F11960D90D2
:100CF000BC91A02DBD83AC8314962D913C9115978A
:100D00003F832E831496ED91FC91159713830283F4
:100D100015961C930E931497EE89E89FF001112409
:100D2000E357FE4FFB87EA8780818F5F808381E0F6
:100D3000B1CF0F931F93CF93DF93EC01892B09F46D
:100D400056C099A1961708F4962F8E89891709F431
:100D50004EC02AA1213009F04AC09E8B2C853D85CA
:100D600037FD06C024E030E0291B31093D872C8780
:100D700029E0829FC001112483579E4F2A853B851D
:100D800028173907A1F58E010E5F1F4FC8010E9479
:100D9000B609AE89809157018A1710F4A0935701C4
:100DA00089E08A9FD0011124A357BE4F11960D9060
:100DB000BC91A02DBD83AC8314962D913C911597C9
:100DC0003F832E831496ED91FC9115971383028334
:100DD00015961C930E931497EE89E89FF001112449
:100DE000E357FE4FFB87EA8780818F5F8083DF9127
:100DF000CF911F910F9108958091B1019091B2010F
:100E0000009721F0FC0122A12F5F22A308950FB6C5
:100E1000F8940F92FC01928D0F900FBE81E091111A
:100E200080E008950F931F93CF93DF93EC01042F7D
:100E30001A8D4C8D411111C088819981892B29F51A
:100E40008C819D810E9442061D821C821F5F1A8F29
:100E5000DF91CF911F910F91089550E0011117C0BC
:100E60008A819B810E949B0F8C8D2A813B81820FFE
:100E7000932F911D9B838A832C813D818217930739
:100E800020F0888199819B838A8380E0DFCF8E81E7
:100E90009F810E949B0F8C8D90E091958195910987
:100EA0002E813F81280F391F3F832E83488159812E
:100EB0002417350730F42C813D81820F931F9F83C7
:100EC0008E83023011F7112301F31150DECFEF9220
:100ED000FF921F93CF93DF93EC010FB6F8940F921C
:100EE0001E8D7C0181E1E80EF11C1116C4F08FEF1C
:100EF0008E8F0F900FBE0FB6F8940F921D8D7E014E
:100F000088E0E80EF11C1116ACF08FEF8D8F0F907A
:100F10000FBEDF91CF911F91FF90EF9008958989C7
:100F2000882329F3C7010E94DF0481110E94C005B4
:100F30001150DBCF8885882341F3C7010E94DF046D
:100F400081110E94C0051150DECFCF93DF9300972F
:100F500009F43FC0FC01238D222309F43AC0EC01BF
:100F6000448D0FB6F8940F9280819181FC01249FEB
:100F7000E00DF11D1124FD83EC831A8E9B838A837F
:100F80002150330B429FF001439FF00D11248E0F2F
:100F90009F1F9F838E838FEF8D8F8E8F611110C067
:100FA0008885882339F0CE0108960E94DF048111DC
:100FB0000E94BE0A0F900FBE81E0DF91CF9108958D
:100FC000CE0108960E946E09CE0141960E946E09DC
:100FD000F1CF80E0F2CF0F931F93CF93DF93811176
:100FE00008C0D0E0C0E0CE01DF91CF911F910F91FA
:100FF0000895869F90011124213E310594F7162F04
:10100000082FC9014F960E94D909EC01009749F3B6
:10101000111109C0998388830B8F1C8F61E0CE0169
:101020000E94A507E0CF4F9699838883F5CFAF92B2
:10103000BF92CF92DF92FF920F931F93CF93DF93D4
:1010400000D000D01F92CDB7DEB78C016B015D835D
:101050004C83F22E80E0580198E0A90EB11C0FB627
:10106000F8940F92F801228D938D291718F0F2E071
:10107000FF1222C04F2DB601C8010E941207F801CD
:101080009189992321F0C80141960E94DF048111C2
:101090000E94BE0A0F900FBE81E00F900F900F903C
:1010A0000F900F90DF91CF911F910F91FF90DF90E4
:1010B000CF90BF90AF9008952C813D81232B21F4D8
:1010C0000F900FBE80E0E9CF811104C0CE010196E0
:1010D0000E9484050F900FBE0E94A4020FB6F894E0
:1010E0000F92F801858D8F3F09F4158EF801868DDA
:1010F0008F3F09F4168E0F900FBEBE016C5F7F4FBD
:10110000CE0101960E948F05811120C00FB6F89480
:101110000F92F801928D0F900FBE838D981310C01F
:101120006C817D81C5010E94CE04C8010E946707C1
:101130000E94A603811102C00E94BE0A81E08FCFE7
:10114000C8010E9467070E94A603F8CFC8010E9449
:1011500067070E94A603B6CFCF92DF92FF920F934C
:101160001F93CF93DF9300D000D01F92CDB7DEB78F
:101170008C017D836C83F12C90E0680181E1C80EC5
:10118000D11C0FB6F8940F92D8015A968C915A97A9
:10119000882359F181505A968C935A978D919C913E
:1011A000892B29F40E94FC06F80195838483D801D9
:1011B00018968C91882339F0C80108960E94DF04A4
:1011C00081110E94BE0A0F900FBEFF24F3948F2D51
:1011D0000F900F900F900F900F90DF91CF911F9174
:1011E0000F91FF90DF90CF9008952C813D81232BAC
:1011F00021F40F900FBEF12CEACF911104C0CE0163
:1012000001960E9484050F900FBE0E94A4020FB6A3
:10121000F8940F92F801858D8F3F09F4158ED8014F
:101220005E968C915E978F3F11F45E961C920F90A4
:101230000FBEBE016C5F7F4FCE0101960E948F05ED
:1012400081112AC0C8010E9407078823F9F0F8011C
:1012500080819181892B51F40FB6F8940F9284818B
:1012600095810E94C405F82E0F900FBE6C817D8180
:10127000C6010E94CE04C8010E9467070E94A6030F
:10128000811102C00E94BE0A91E07BCFC8010E947A
:1012900067070E94A603F8CFC8010E9467070E9453
:1012A000A603C8010E940707882371F3FF2009F4F1
:1012B0008ECF0FB6F8940F92F801818960E08823F1
:1012C00031F00688F789E02D808164E0681BD80141
:1012D00014968D919C910E9499068BCFFC010396E8
:1012E000928381832FEF3FEF34832383968385831B
:1012F0009087878310820895FC01118610860895D7
:101300000F931F93CF93DF938C01FB018081918119
:10131000D80113968F3F9807F1F4E801AF81B885A3
:1013200012968D919C91139793838283EC01FD8398
:10133000EC83B583A4831396FC93EE9312971187E5
:101340000087F80180818F5F8083DF91CF911F91AB
:101350000F910895D90112962D913C911397E901AF
:101360004881598184179507A8F7DACFCF93DF9387
:10137000FC01A085B1858281938124813581EC01B6
:101380003D832C83C481D5819B838A8311968D9163
:101390009C9112978E179F0721F41296DC93CE939F
:1013A0001197118610868C9181508C93DF91CF918B
:1013B00008950F931F93CF93DF938C010E94A40293
:1013C0008091B3019091B401892B31F487EB91E0C6
:1013D0009093B4018093B30101151105F9F02091A8
:1013E000B5013091B601020F131F0B3D85E01807C0
:1013F000A8F42017310790F4C091B301D091B40143
:10140000C20FD31F1093B6010093B5010E94A6032B
:10141000CE01DF91CF911F910F910895D0E0C0E0F0
:10142000F5CF089531E1FC013083319722E220832A
:101430003197A3E3A083319760833197708331970D
:101440001082319760E8608331971082319762E0B3
:101450006083319763E06083319764E06083319704
:1014600065E06083319766E06083319767E0608371
:10147000319768E06083319769E06083319760E17C
:10148000608331973083319732E13083319733E194
:101490003083319734E13083319735E130833197B0
:1014A00036E13083319737E13083319738E130834B
:1014B000319739E13083319730E23083319731E22F
:1014C000308331972083319723E220833197408303
:1014D00031975083319726E22083319727E220838A
:1014E000319728E22083319729E22083319720E346
:1014F0002083319721E320838697089589EF90E038
:101500009093890080938800E0E8F0E080818C7FF0
:1015100080838BE080938100EFE6F0E08081826041
:101520008083A091B101B091B201CD91CDBFDD9189
:10153000DEBFFF91EF91DF91CF91BF91AF919F916E
:101540008F917F916F915F914F913F912F911F915B
:101550000F91FF90EF90DF90CF90BF90AF909F9052
:101560008F907F906F905F904F903F902F901F9043
:101570000F900FBE0F90089581E008950F920FB65F
:10158000F8940F921F9211242F923F924F925F92E4
:101590006F927F928F929F92AF92BF92CF92DF9283
:1015A000EF92FF920F931F932F933F934F935F936D
:1015B0006F937F938F939F93AF93BF93CF93DF935B
:1015C000EF93FF93A091B101B091B2010DB60D92CE
:1015D0000EB60D920E948804A091B101B091B201A3
:1015E000CD91CDBFDD91DEBFFF91EF91DF91CF9126
:1015F000BF91AF919F918F917F916F915F914F912B
:101600003F912F911F910F91FF90EF90DF90CF901E
:10161000BF90AF909F908F907F906F905F904F9012
:101620003F902F901F900F900FBE0F9008950F9234
:101630000FB6F8940F921F9211242F923F924F925F
:101640005F926F927F928F929F92AF92BF92CF9252
:10165000DF92EF92FF920F931F932F933F934F933D
:101660005F936F937F938F939F93AF93BF93CF932A
:10167000DF93EF93FF93A091B101B091B2010DB64A
:101680000D920EB60D920E94AA0281110E9488044A
:10169000A091B101B091B201CD91CDBFDD91DEBF7E
:1016A000FF91EF91DF91CF91BF91AF919F918F917A
:1016B0007F916F915F914F913F912F911F910F916A
:1016C000FF90EF90DF90CF90BF90AF909F908F9062
:1016D0007F906F905F904F903F902F901F900F9052
:1016E0000FBE0F9008950E94170B189590E080E0B0
:1016F00008958091C2079091C307891B990B0895A3
:101700009091C3078091C2072FEF3FEF981748F4DD
:10171000E92FF0E0EC53F84F208130E09F5F909389
:10172000C307C9010895E091C3078091C207E81774
:1017300030F4F0E0EC53F84F808190E008958FEFA3
:101740009FEF08950895CF93DF931F92CDB7DEB733
:10175000698320919F072223F9F02091A00720326E
:1017600058F021E030E0FC013383228390E080E0F8
:101770000F90DF91CF9108958091A107E82FF0E0BD
:10178000EE55F84F998190838F5F8093A1078093E6
:10179000A00781E090E0ECCF61E0CE0101960E94CD
:1017A000100CF7CFCF92DF92EF92FF920F931F931F
:1017B000CF93DF937C01CB018A0120919F072223E5
:1017C00089F0EB016B01C40ED51ECC15DD0569F067
:1017D0006991D701ED91FC910190F081E02DC70155
:1017E0000995F3CF642F0E94100CC801DF91CF91AF
:1017F0001F910F91FF90EF90DF90CF900895E3E954
:10180000F7E01382128288EE93E0A0E0B0E08483D8
:101810009583A683B7838CE091E0918380830895BC
:1018200020910608260F3327331F21323105ECF4AF
:1018300020915108FC0190E080E0243069F082E0C2
:101840000895A09106082191AC01485F574FA40F5D
:10185000B52FB11D2C930196861798F38091060839
:10186000680F6093060880E0089581E0089585ED93
:101870008093BC008091BC0084FDFCCF1092510885
:10188000089585EC8093BC001092510808951F9232
:101890000F920FB60F9211242F933F934F935F93A4
:1018A0006F937F938F939F93AF93BF93EF93FF9328
:1018B0008091B900887F803609F44CC008F03FC0A1
:1018C000883209F4A8C018F5803109F49CC0B8F436
:1018D000882309F4F9C0883009F495C0FF91EF918D
:1018E000BF91AF919F918F917F916F915F914F9138
:1018F0003F912F910F900FBE0F901F901895883138
:1019000009F489C0803251F78093E40715C0803410
:1019100009F49EC048F48033B9F38833F9F6809314
:10192000E4070E94410CDACF803509F485C0883580
:1019300009F496C0883491F60E94370CCFCF8839CD
:1019400009F48CC038F5883729F050F4883611F046
:10195000803721F683E0809351081092E50757C045
:10196000883809F47BC0803919F0803809F0B6CF87
:101970008091E507803208F071C0E091E50781E0D1
:101980008E0F8093E5078091BB00F0E0EA51F84F9D
:1019900080833DC0803B39F0E0F4803A09F479C09F
:1019A000883A09F09BCF84E0809351081092070891
:1019B00010920608E0914C08F0914D08099580912D
:1019C000060881110FC081E0809306081092080874
:1019D00009C0803C09F476C0883C09F473C0883B98
:1019E00009F07CCFE091070881E08E0F8093070813
:1019F000F0E0E85FF74F80818093BB00909107088B
:101A00008091060829C0809150088093BB0085EC26
:101A10008093BC0063CF9091290880912808981783
:101A200058F5E091290881E08E0F80932908F0E0B5
:101A3000E65DF74F8081E9CFE091290881E08E0FC4
:101A4000809329088091BB00F0E0E65DF74F80832A
:101A500090912908809128089817C8F285E8D8CF76
:101A6000E091290881E08E0F809329088091BB00C6
:101A7000F0E0E65DF74F808380914F0881115CCFE5
:101A800081E080934E0884EA8093BC001092510854
:101A900025CF0E94410C8091E507803230F4E0911F
:101AA000E507F0E0EA51F84F10826091E50770E039
:101AB000E0914A08F0914B0886EE97E00995109264
:101AC000E5070CCF85ECE0CF1092E40735CF2098E6
:101AD000289A089583B1809581700895853B08F018
:101AE00084EB282F30E0AFE0B0E00E94860F24EBBB
:101AF00030E040E050E00E94640F205F27BD089571
:101B0000569A83E084BD84B5806884BD85E085BD38
:101B100080E00C946E0D3C98449A08953C9A449849
:101B200008953D98459A08953D9A459808950E94D4
:101B30008B0D0E94910D8AE18A95F1F700C00E94F9
:101B40008E0D8AE18A95F1F700C00E94940D8AE11A
:101B50008A95F1F700C008950E948E0D8AE18A955A
:101B6000F1F700C00E94910D8AE18A95F1F700C05B
:101B70000E948B0D8AE18A95F1F700C00895CF93FA
:101B8000DF93D82FC8E0D7FF2AC00E948B0D8AE1CF
:101B90008A95F1F700C00E94910D8AE18A95F1F7CC
:101BA00000C00E94940D8AE18A95F1F700C0DD0F14
:101BB000C15049F70E948B0D8AE18A95F1F700C068
:101BC0000E94910D8AE18A95F1F700C00E94940D60
:101BD0008AE18A95F1F700C0DF91CF9108950E94C4
:101BE0008E0DD5CFCF93C82F0E94970D8CE70E9402
:101BF000BF0D80E80E94BF0D8C2F0E94BF0DCF91BA
:101C00000C94AC0D0E948B0D0E94910D2FEF80E77C
:101C100092E0215080409040E1F700C0000088E24F
:101C20000E94F20D8FE19EE40197F1F700C00000E1
:101C30008CE00E94F20D8FE19EE40197F1F700C065
:101C4000000081E00E94F20D8FE19EE40197F1F720
:101C500000C0000086E00E94F20D8FE19EE4019733
:101C6000F1F700C00000089581E00E94F20D8FE3BB
:101C70009FE10197F1F700C000000895611160E451
:101C8000860F80680E94F20D87EC90E00197F1F7D3
:101C900000C0000008950F931F93CF938C01F801AB
:101CA000C1918F01C11104C0CF911F910F9108956F
:101CB0000E94970D8CE70E94BF0D80E40E94BF0D2B
:101CC0008C2F0E94BF0D0E94AC0D87EC90E0019715
:101CD000F1F700C00000E3CF8093010184B1897F58
:101CE00084B985B1866085B9E8E6F0E080818160DD
:101CF0008083EBE6F0E080818660808378940895AD
:101D00001F920F920FB60F9211248F939F93EF9310
:101D1000FF931A9B10C093B180915508880F969538
:101D20009170892B80935508909154089F5F98304B
:101D300059F090935408FF91EF919F918F910F90DC
:101D40000FBE0F901F901895109254089091530851
:101D500091110FC0982F91709093520890910101AA
:101D60008695891303C081E080935308109255082B
:101D7000E2CF90915208E0915608F0E0E95AF74F0F
:101D8000911107C08083809156088F5F8093560819
:101D9000EDCF8081F8CF0E94020E0E94340E60E0E9
:101DA00080E00E943E0E8AE191E00E944B0E6FEFB0
:101DB0007FEF80916808909169080E94AC080E94AA
:101DC000340E60E080E00E943E0E80916708882318
:101DD00019F088E291E0E9CF85E391E0E6CFC0E039
:101DE000309910C05B9A80916708882369F05A9AED
:101DF0005C9884EB0E946E0DC0E082E390E00E944C
:101E00007304EECF5B98EFCFC83210F4CF5FF5CFFD
:101E10005C9A5A9880E00E946E0DEFCF0E946A0D86
:101E2000809367089091670880910201981779F074
:101E3000809167088093020120E050E040E070E06C
:101E400060E080916808909169080E94170880E519
:101E500090E00E947304E2CF82E30E946C0E8AB18C
:101E60008C618AB93898409A0E94670D0E94800D53
:101E700043E060E081E00E94EB0790936908809363
:101E80006808F12CE12C03E030E020E046E96FE344
:101E900071E08EE09FE00E943A0102E030E020E035
:101EA00048EC63E471E08FEE9EE00E943A0101E0AD
:101EB00030E020E048EC68E471E08BEC9EE00E94AA
:101EC0003A010E945C02FFCFA1E21A2EAA1BBB1BA3
:101ED000FD010DC0AA1FBB1FEE1FFF1FA217B307F6
:101EE000E407F50720F0A21BB30BE40BF50B661F0C
:101EF000771F881F991F1A9469F7609570958095D0
:101F000090959B01AC01BD01CF010895A29FB00146
:101F1000B39FC001A39F700D811D1124911DB29F1D
:101F2000700D811D1124911D0895EE0FFF1F059066
:101F3000F491E02D0994FB01DC0102C001900D92A7
:0C1F400041505040D8F70895F894FFCFAE
:101F4C000332FF49444C450000000000A30BD20BA8
:101F5C00760BA20B790B800B930B5061726B696E35
:101F6C006720526561647900436172206465746511
:101F7C006374656400467265652073706F7400410C
:0C1F8C004351004354524C004C434400AD
:00000001FF
