:100000000C9458000C9480000C9480000C94800098
:100010000C9480000C9480000C9480000C94800060
:100020000C9480000C9480000C9480000C947B094C
:100030000C9480000C9480000C9480000C94800040
:100040000C9480000C9480000C9480000C94800030
:100050000C9480000C9480000C9480000C94800020
:100060000C94D60A0C9480000000000800020100E5
:100070000003040700000000000000000102040863
:100080001020408001020408102001020408102002
:10009000040404040404040402020202020203032E
:1000A0000303030300000000250028002B00620A60
:1000B00011241FBECFEFD8E0DEBFCDBF11E0A0E01E
:1000C000B1E0EAE4FCE102C005900D92AC32B10768
:1000D000D9F728E0ACE2B1E001C01D92AF34B2071D
:1000E000E1F710E0C8E5D0E004C02197FE010E94CE
:1000F000140EC735D107C9F70E949E0D0C94230E2C
:100100000C940000AF92BF92DF92EF92FF920F9398
:100110001F93CF93DF93EC01D62EA0903801B090BF
:1001200039010091590110915A01E0905701F09066
:100130005801809191019091920102960E94E207EC
:10014000CF3FDC0709F042C0D11409F43FC0E09171
:100150003C01F0913D01A0919101B0919201159661
:10016000FC93EE931497A0919101B0919201848138
:10017000958117969C938E931697809191019091FB
:100180009201A481B581029613969C938E93129747
:100190008091910190919201029695838483E091E0
:1001A0009101F09192018BE391E093878287809196
:1001B0003B018F5F80933B01DF91CF911F910F91A6
:1001C000FF90EF90DF90BF90AF900895CA0DDB1DB8
:1001D000E0919101F0919201D383C28360919101EA
:1001E000709192016E5F7F4FCA15DB0560F4C70105
:1001F000DF91CF911F910F91FF90EF90DF90BF9013
:10020000AF900C94B307C8010E94B30780912F01EF
:1002100090913001C817D90778F6D0933001C09378
:100220002F01CACFE0915901F0915A0180818111CB
:1002300007C08FEF9FEF9093300180932F010895B7
:10024000E0915901F0915A010580F681E02D8081FD
:100250009181F1CFCF93DF9380914401811103C04D
:10026000DF91CF9108950FB6F8940F92E0914A0173
:10027000F0914B01C681D781CE0102960E94E20720
:1002800080913A01815080933A01809144018150DC
:10029000809344010F900FBE8F89988D0E943C0877
:1002A000CE010E943C08D8CF0E942A0180916D01A6
:1002B0008230D0F30E94C608F7CF5F926F927F9290
:1002C0008F929F92AF92BF92CF92DF92EF92FF9266
:1002D0000F931F93CF93DF93782E192F6B01622E0C
:1002E000532E5701842E912CC4010E9405087C01D5
:1002F000892B89F48FEFDF91CF911F910F91FF90A0
:10030000EF90DF90CF90BF90AF909F908F907F90B5
:100310006F905F90089588E290E00E940508EC01DC
:10032000892B09F4BEC088E2FE0111928A95E9F793
:10033000F88EEF8AF1E08F1A9108E80CF91CC114CD
:10034000D10409F0B2C0043008F003E00E8B09A319
:100350006E0182E0C80ED11CC6010E94AF07CE011B
:100360000C960E94AF07D987C88784E090E0801B75
:1003700091099D878C87DB8BCA8B462D552D672D68
:10038000712FC7010E943D0899838883A114B1048D
:1003900019F0F501D183C0830FB6F8940F928091C4
:1003A0003A018F5F80933A0180919101909192017F
:1003B000892B09F089C0D0939201C093910180915B
:1003C0003A01813081F58DE691E00E94A10786E730
:1003D00091E00E94A1078FE791E00E94A10788E8C1
:1003E00091E00E94A10784E691E00E94A1078BE5BD
:1003F00091E00E94A1078EE491E00E94A10785E4AC
:1004000091E00E94A1078BE391E00E94A10784E69E
:1004100091E090935A01809359018BE591E090937C
:10042000580180935701809131018F5F8093310192
:100430008E8990913701981710F48093370199E0D5
:10044000899FF0011124AF0143595E4FFA01A18148
:10045000B281BD83AC8314962D913C9115973F8357
:100460002E8314962D913C911597F901D382C28267
:100470001596DC92CE9214975B874A87FA01908199
:100480009F5F90830F900FBE90913601911539F0C8
:10049000E0919101F09192019689981738F181E0ED
:1004A0002ACFC7010E943C0825CFF601DE015996EC
:1004B0009601285F3F4F81918D93811519F02E177A
:1004C0003F07C9F718A23FCF809136018111ABCF0A
:1004D000E0919101F091920186899E89981708F424
:1004E000A2CFD0939201C09391019DCF0E94C608E4
:1004F000D6CFEF92FF920F93CF93DF93CDB7DEB7B6
:1005000028970FB6F894DEBF0FBECDBFA1E0B1E0D3
:10051000FE013196BF018D9181938111FCCF8DE257
:10052000E82E81E0F82E00E020E030E045E584E5AB
:1005300091E00E945D01813079F4F8942FEF3FEF54
:100540003093300120932F018093360110923901AE
:10055000109238010E9486088091190128960FB6E2
:10056000F894DEBF0FBECDBFDF91CF910F91FF900A
:10057000EF90089580912C018F5F80932C01089556
:10058000CF92DF92EF92FF921F93CF93DF938091F0
:100590002C018111DEC0C0913801D0913901219622
:1005A0006E01D0933901C0933801CD2BB9F48091FD
:1005B000590190915A01209157013091580130937F
:1005C0005A012093590190935801809357018091CB
:1005D00032018F5F809332010E94120180912F01BE
:1005E00090913001C816D90608F4B1C090E019E026
:1005F000E0915901F0915A018081811126C02FEFBD
:100600003FEF3093300120932F01E0919101F09161
:10061000920130913301E689D9E0ED9FF001112478
:10062000E359FE4F81E02081223008F480E021E090
:10063000311101C020E0822B892BDF91CF911F91D6
:10064000FF90EF90DF90CF900895E0915901F091E5
:100650005A010580F681E02D0680F781E02D228188
:100660003381C216D30668F2C285D3854481558191
:1006700026813781DA0115963C932E9314972681B3
:100680003781D90113965C934E931297AF014E5F59
:100690005F4F69817A816417750711F43A83298362
:1006A00013861286888181508883A489B589109722
:1006B000F9F02685378560897189E9017D836C832E
:1006C00060897189EB013B832A831196ED90FC9040
:1006D00012979F01245F3F4FE216F30621F4129612
:1006E0007C936E931197158A148A8C9181508C9308
:1006F000868920913701281710F480933701189FBD
:10070000D0011124A359BE4F11962D913C911297FF
:1007100035832483E9016C817D81778366836C81D5
:100720007D81EB015B834A83E9015D834C83B38761
:10073000A2872C912F5F2C93E0919101F09192016F
:1007400021E03689381708F020E0922B51CF90E055
:100750005CCF8091340190913501019690933501E1
:100760008093340180E069CFEF92FF920F931F9343
:10077000CF93DF930FB6F8940F9280912C018150A4
:1007800080932C0180912C01811551F080E00F9015
:100790000FBEDF91CF911F910F91FF90EF900895C1
:1007A00080913A01811591F3409153015091540188
:1007B000E0E0F0E069E071E080914E01811122C03B
:1007C000EF2B11F00E941201C0913401D09135013C
:1007D000209761F011E00E94C00281111093330153
:1007E0002197C9F71092350110923401809133019D
:1007F000811561F280919101909192010E94C60849
:1008000081E0C5CFDA011696ED91FC91A489B589F6
:100810008685978520893189EC013D832C83C089A9
:10082000D1899B838A83CF010C9611962D913C919F
:1008300012972817390721F41296DC93CE9311975B
:10084000158A148A8C9181508C93A285B3858481FA
:10085000958126813781EC013D832C83C681D78128
:100860009B838A839F012E5F3F4F11968D919C91B0
:1008700012978217930721F41296DC93CE93119767
:100880008C9181508C93868990913701981710F440
:1008900080933701689FD0011124ED01C359DE4FC9
:1008A0007E010980DA81C02DD583C4830C811D812E
:1008B000178306830C811D81D80113963C932E93D8
:1008C00012973D832C83F386E286E70198819F5F30
:1008D0009883A0919101B091920156969C9198179E
:1008E00008F06ACF7093330167CFCF93DF93EC01A9
:1008F000892B29F40E94C608DF91CF9108950E94A8
:10090000BA0260E0CE010E9482000E94B403811509
:1009100089F3F2CF80912C01811521F081E0809341
:1009200033010895109233018091370149E0489FC7
:1009300090011124D901A359BE4F9C91911529F121
:100940001196ED91FC9112970280F381E02D1296A1
:10095000FC93EE93119720593E4FE217F30741F4B1
:100960001596ED91FC9116971296FC93EE931197C4
:100970002681378130939201209391018093370132
:10098000809191019091920108958150D0CFCF93A1
:10099000DF93D62FC72F6091910170919201645F10
:1009A0007F4F0E94B30761E08D2F9C2FDF91CF9185
:1009B0000C948200CF93DF93DC011596ED91FC91AE
:1009C0000680F781E02DA489B589868597852089E1
:1009D0003189EC013D832C83C089D1899B838A8333
:1009E000CF010C9611962D913C911297281739073B
:1009F00021F41296DC93CE931197158A148A2C91C8
:100A000021502C9320912C01211153C0A285B38534
:100A10008481958126813781EC013D832C83C681B9
:100A2000D7819B838A83CF01029611962D913C91A9
:100A300012972817390721F41296DC93CE93119759
:100A40002C9121502C93A689209137012A1710F45C
:100A5000A0933701D9E0AD9FD0011124AD014359D6
:100A60005E4FDA011196CD91DC91D583C4832C8140
:100A70003D81378326832C813D81D90113969C9338
:100A80008E9312979D838C8353874287EA018881D6
:100A90008F5F8883A0919101B091920186895696CB
:100AA0009C91981730F581E080933301DF91CF91CD
:100AB0000895A0914F01B0915001B787A687149671
:100AC0002D913C911597318B208B1496CD91DC9113
:100AD00015979B838A8315969C938E9314978EE427
:100AE00091E0958B848B80914E018F5F80934E01B6
:100AF000D1CF80E0DBCFFC018091320180838091F7
:100B0000380190913901928381830895FC01DB01C2
:100B10000FB6F8940F9240913801509139012D9100
:100B20003C9111972F3F3207F9F0818192816091BA
:100B300032017081761749F04817590730F01D923D
:100B40001C9281E00F900FBE0895BA01681B790BCB
:100B500062177307A0F7241B350B280F391F2D933D
:100B60003C93CF010E947B0580E0ECCF81E0809335
:100B7000330108950F931F93CF93DF93EC01892BDB
:100B800031F480E0DF91CF911F910F9108958AA1F8
:100B900081508AA32E8999A1291799F38111F1CF48
:100BA0008E010E5F1F4FC8010E94E207E9A1EE8B84
:100BB00084E090E08E1B91099D878C87809137019E
:100BC0008E1710F4E093370189E0E89FF0011124BB
:100BD0009F0123593E4FF901A181B281BD83AC83AE
:100BE00014968D919C9115979F838E8314968D9169
:100BF0009C911597FC011383028315961C930E9309
:100C000014973B872A87F90180818F5F808381E079
:100C1000B9CF0F931F93CF93DF93EC01042F1A8D5D
:100C20008C8D811111C088819981892B09F58C8166
:100C30009D810E94BA051D821C821F5F1A8FDF9161
:100C4000CF911F910F910895482F50E0011117C0C7
:100C50008A819B810E941A0E2C8D8A819B81820F32
:100C6000911D9B838A832C813D818217930710F409
:100C700080E0E3CF888199819B838A83F9CF8E813D
:100C80009F810E941A0E2C8D30E044275527421B6D
:100C9000530B8E819F81821B930B9F838E832881B0
:100CA00039818217930730F48C819D81840F951FC1
:100CB0009F838E830230E1F61115D1F21150D8CF07
:100CC000EF92FF921F93CF93DF93EC010FB6F8944E
:100CD0000F921E8D7C0181E1E80EF11C11161CF4AF
:100CE000898981111BC08FEF8E8F0F900FBE0FB6B9
:100CF000F8940F921D8D7E0188E0E80EF11C11160C
:100D00001CF48885811112C08FEF8D8F0F900FBE5C
:100D1000DF91CF911F91FF90EF900895C7010E943E
:100D2000DA0481110E94B6051150D8CFC7010E9484
:100D3000DA0481110E94B6051150E1CFCF93DF9301
:100D4000EC01892B09F43DC02B8D211509F439C024
:100D50004C8D0FB6F8940F9288819981FC01249FE5
:100D6000E00DF11D1124FD83EC831A8E9B838A8391
:100D70002150330B429FF001439FF00D11248E0F41
:100D80009F1F9F838E838FEF8D8F8E8F611110C079
:100D90008885811539F0CE0108960E94DA04811108
:100DA0000E94C6080F900FBE81E0DF91CF91089599
:100DB000CE0108960E94A107CE0141960E94A1078C
:100DC000F1CF80E0F2CF0F931F93CF93DF93082FE3
:100DD000162F811108C0C0E0D0E0CE01DF91CF9185
:100DE0001F910F910895869FC0011124813E9105A6
:100DF00094F74F960E940508EC01009761F31111DA
:100E00004F96998388830B8F1C8F61E0CE010E94DF
:100E10009E06E3CFAF92BF92DF92EF92FF920F93C5
:100E20001F93CF93DF9300D000D00F92CDB7DEB7E2
:100E30008C01E62ED72E5D834C83F22E80E0580184
:100E400098E0A90EB11C0FB6F8940F92F801228D0C
:100E5000938D291718F54F2D6E2D7D2DC8010E94F9
:100E60000906F8019189911521F0C80141960E9467
:100E7000DA0481110E94C6080F900FBE81E00F9026
:100E80000F900F900F900F90DF91CF911F910F91C6
:100E9000FF90EF90DF90BF90AF900895F2E0FF16C3
:100EA000D1F22C813D81232B21F40F900FBE80E0E5
:100EB000E6CF811104C0CE0101960E947B050F9000
:100EC0000FBE0E94BA020FB6F8940F92F801858DFA
:100ED0008F3F09F4158EF801868D8F3F09F4168E29
:100EE0000F900FBEBE016C5F7F4FCE0101960E9436
:100EF0008605811120C00FB6F8940F92F801928DEB
:100F00000F900FBE838D981310C06C817D81C50139
:100F10000E94C704C8010E9460060E94B4038111A8
:100F200002C00E94C60881E08ECFC8010E94600600
:100F30000E94B403F8CFC8010E9460060E94B40367
:100F4000B6CFFC010396928381832FEF3FEF34836A
:100F50002383968385839087878310820895FC017D
:100F6000118610860895CF93DF93DC01FB01208169
:100F700031812F3F3207C9F417966D917C911897F4
:100F8000EB018A819B8193838283EC01FD83EC8357
:100F900075836483EB01FB83EA83B187A0878C911F
:100FA0008F5F8C93DF91CF910895CD010396BC01A3
:100FB000EC018A819B81EC01488159812417350716
:100FC000B0F7DECFCF93DF93FC01A085B18582819E
:100FD000938124813581EC013D832C83C481D581AB
:100FE0009B838A8311968D919C9112978E179F07F0
:100FF00021F41296DC93CE931197118610868C9172
:1010000081508C93DF91CF9108950F931F93CF93CD
:10101000DF93EC010E94BA028091930190919401B8
:10102000892B31F487E991E09093940180939301A7
:101030002097F9F08091950190919601C80FD91FE2
:10104000CB3D25E0D207A8F48C179D0790F40091C2
:10105000930110919401080F191FD0939601C0932A
:1010600095010E94B403C801DF91CF911F910F91A8
:10107000089500E010E0F5CF0895FC0191E1908320
:10108000DF0182E28E9323E32E936E937E931E9272
:1010900020E82E931E9222E02E9323E02E9324E04C
:1010A0002E9325E02E9326E02E9327E02E9328E022
:1010B0002E9329E02E9320E12E939E9392E19E930E
:1010C00093E19E9394E19E9395E19E9396E19E9386
:1010D00097E19E9398E19E9399E19E9390E29E936F
:1010E00091E29E938E9383E28E934E935E9386E27B
:1010F0008E9387E28E9388E28E9389E28E9380E3CB
:101100008E9381E38E93CF018697089589EF90E0C7
:101110009093890080938800E0E8F0E080818C7FE4
:1011200080838BE080938100EFE6F0E08081826035
:101130008083A0919101B0919201CD91CDBFDD91BD
:10114000DEBFFF91EF91DF91CF91BF91AF919F9162
:101150008F917F916F915F914F913F912F911F914F
:101160000F91FF90EF90DF90CF90BF90AF909F9046
:101170008F907F906F905F904F903F902F901F9037
:101180000F900FBE0F90089581E008950F920FB653
:10119000F8940F921F9211242F923F924F925F92D8
:1011A0006F927F928F929F92AF92BF92CF92DF9277
:1011B000EF92FF920F931F932F933F934F935F9361
:1011C0006F937F938F939F93AF93BF93CF93DF934F
:1011D000EF93FF93A0919101B09192010DB60D9202
:1011E0000EB60D920E948A04A0919101B0919201D5
:1011F000CD91CDBFDD91DEBFFF91EF91DF91CF911A
:10120000BF91AF919F918F917F916F915F914F911E
:101210003F912F911F910F91FF90EF90DF90CF9012
:10122000BF90AF909F908F907F906F905F904F9006
:101230003F902F901F900F900FBE0F9008950F9228
:101240000FB6F8940F921F9211242F923F924F9253
:101250005F926F927F928F929F92AF92BF92CF9246
:10126000DF92EF92FF920F931F932F933F934F9331
:101270005F936F937F938F939F93AF93BF93CF931E
:10128000DF93EF93FF93A0919101B09192010DB67E
:101290000D920EB60D920E94C00281110E948A0426
:1012A000A0919101B0919201CD91CDBFDD91DEBFB2
:1012B000FF91EF91DF91CF91BF91AF919F918F916E
:1012C0007F916F915F914F913F912F911F910F915E
:1012D000FF90EF90DF90CF90BF90AF909F908F9056
:1012E0007F906F905F904F903F902F901F900F9046
:1012F0000FBE0F9008950E941F09189580E090E09E
:1013000008958091A6079091A707891B990B0895CE
:101310009091A7078091A6072FEF3FEF981748F409
:10132000E92FF0E0E855F84F208130E09F5F90937F
:10133000A707C9010895E091A7078091A607E817BC
:1013400030F4F0E0E855F84F808190E008958FEF99
:101350009FEF08950895CF93DF93DC01CB01E091D7
:101360007F07F09180073097E9F03091A70720912F
:10137000A6073217B8F020E0422F50E028171906D0
:101380003CF01092A7078093A607DF91CF910994B4
:10139000ED01C40FD51F38814855584FEA013883F5
:1013A0002F5FEACFDF91CF910895E0918107F0910F
:1013B0008207309729F010928507109284070994CC
:1013C0000895CF93DF930F92CDB7DEB7FC01698309
:1013D000809183078115F1F080918407803250F06D
:1013E00081E090E09383828380E090E00F90DF9132
:1013F000CF91089580918507E82FF0E0EA57F84FE4
:10140000998190838F5F809385078093840781E023
:1014100090E0ECCF61E0CE0101960E94950AF7CFF3
:10142000CF92DF92EF92FF920F931F93CF93DF93B0
:101430007C01CB018A01209183072115D9F0EB01B2
:101440006B01C40ED51ECC15DD0551F4C801DF912A
:10145000CF911F910F91FF90EF90DF90CF90089563
:101460006991D701ED91FC910190F081E02DC701C8
:101470000995E9CF642F0E94950AE8CF1092A7073B
:101480001092A60710928507109284070E94730A93
:1014900085ED99E00E94C10A8BEA99E00C94BC0AA0
:1014A000CF93C62F0E943E0A8C2FCF910C94910AA5
:1014B0007093800760937F0708957093820760930D
:1014C00081070895E3E7F7E01382128288EE93E044
:1014D000A0E0B0E084839583A683B7838EE191E09A
:1014E0009183808308951092350881E080933308BA
:1014F0001092320861E082E10E941A0C61E083E1FF
:101500000E941A0CE9EBF0E080818E7F808380815D
:101510008D7F808388E48093B80085E48093BC004D
:101520000895880F8093BA0008952091EA07260F46
:101530003327331F21323105ECF420913508FC01AB
:1015400080E090E0243069F082E00895A091EA07FD
:101550002191AC014451584FA40FB52FB11D2C93CC
:101560000196861798F38091EA07860F8093EA0721
:1015700080E0089581E0089590932F0880932E08CD
:1015800008959093310880933008089585ED8093F5
:10159000BC008091BC0084FDFCCF109235080895FA
:1015A00085EC8093BC001092350808951F920F922D
:1015B0000FB60F9211242F933F934F935F936F9326
:1015C0007F938F939F93AF93BF93EF93FF939091EC
:1015D000B900892F887F803509F4C3C008F044C062
:1015E000803309F4B9C098F5883101F1D0F488301E
:1015F00009F4AAC0803109F4A7C0811509F4F0C02C
:10160000FF91EF91BF91AF919F918F917F916F91DA
:101610005F914F913F912F910F900FBE0F901F90B0
:101620001895803209F498C0883251F790910D08CE
:1016300080910C08981790F5E0910D0881E08E0FCD
:1016400080930D08F0E0E25FF74F80817FC0803427
:1016500009F493C0883409F481C0883389F68093F3
:10166000C8070E94D00ACCCF803A09F4A0C0C0F5C8
:10167000803809F48AC058F5803619F1E0F48835CD
:1016800009F0BECFE0910D0881E08E0F80930D0828
:101690008091BB00F0E0E25FF74F808380913308D8
:1016A00081115CC081E08093320884EA8093BC00A1
:1016B00010923508A5CF803721F0987E983609F032
:1016C0009FCF83E0809335081092C90741C08039CD
:1016D00009F45BC0987E983809F092CF85E839C04C
:1016E000883BD9F058F5883A19F0803B09F088CF4B
:1016F00084E0809335081092EB071092EA07E0919E
:101700003008F091310809958091EA07811105C0F0
:1017100081E08093EA071092EC07E091EB0781E00B
:101720008E0F8093EB07F0E0E451F84F80818093B7
:10173000BB009091EB078091EA0723C0907F903C1B
:1017400009F05ECF85ECB2CF809134088093BB0066
:1017500085EC8093BC0054CF8093C8070E94C60AD2
:101760004FCFE0910D0881E08E0F80930D0880919E
:10177000BB00F0E0E25FF74F808390910D0880910D
:101780000C08981708F0AACFE3CF8091C9078032E0
:1017900008F0A4CFE091C90781E08E0F8093C907BC
:1017A0008091BB00F0E0E653F84F8083D1CF0E94D8
:1017B000D00A8091C907803230F4E091C907F0E087
:1017C000E653F84F10826091C90770E0E0912E084F
:1017D000F0912F088AEC97E009951092C90710CF75
:1017E0001092C807BBCF843081F050F48230A9F04A
:1017F000833079F4809180008F7780938000089502
:10180000873071F0883091F00895809180008F7D4D
:10181000F4CF84B58F7784BD089584B58F7DFBCFD9
:101820008091B0008F778093B00008958091B000D0
:101830008F7DF9CF1F93CF93DF93162F282F30E0A2
:10184000F901E859FF4F8491F901E458FF4FD49111
:10185000F901E057FF4FC491C115A1F081110E9419
:10186000F30BEC2FF0E0EE0FFF1FEC55FF4FA591AF
:10187000B5919FB7F8948C91111108C0D095D823D9
:10188000DC939FBFDF91CF911F9108958D2B8C9397
:10189000F8CF2098289A089583B180958170089593
:1018A000569A83E084BD84B5806884BD85E085BD9B
:1018B00088E087BD08959C01293384E0380710F043
:1018C00028E334E0AFE1B0E00E94050E28E334E005
:1018D00040E050E00E94E30D285F27BD089580316D
:1018E00028F4E82FF0E0E85CF74F6083089580313A
:1018F00030F4E82FF0E0E85CF74F808108958FEF37
:101900000895682F20E030E0F901E85CF74F10827D
:101910002F5F3F4F20313105B9F783E797E00E94F1
:10192000500A6DE97CE083E797E00E94580A62ED77
:101930007CE083E797E00C945D0ACF93DF93EC01A2
:101940001816190664F583E797E00E9488098093CA
:10195000370881E080933608C130D10501F183E773
:1019600097E00E948109892BD1F08091370880315E
:1019700028F083E797E00E9488090FC083E797E08B
:101980000E948809E0913708F0E0E85CF74F808317
:10199000809137088F5F809337082197DDCFDF91E3
:1019A000CF910895809136088115D1F08091370844
:1019B0008031B0F4E0913708F0E0E85CF74F6081E7
:1019C00083E797E00E94E109809137088F5F809359
:1019D000370880913708803140F010923708089519
:1019E0006FEF83E797E00C94E109089586B1809545
:1019F0008170809348086091480881E00E946F0CD4
:101A000084E690E00E947504F1CF6091480861156A
:101A1000A9F05B9A64E080914C08811589F05A9A8C
:101A20005C98616083E00E946F0C61E085E00E9439
:101A30006F0C82E390E00E947504E7CF5B98EBCFD8
:101A400080914908843670F35C9A5A986260EACFB4
:101A5000C0E010E086E00E94770C8F3F71F56FEFD9
:101A600086E00E946F0CC0E080914C08811136C066
:101A7000143608F41F5F10934908C1110EC08091FD
:101A80004C08811569F188E394E00E945B0C88E3BF
:101A900094E090934B0880934A0860914A087091B3
:101AA0004B0882E00E946F0C612F84E00E946F0C53
:101AB00082E390E00E947504CDCF853BA8F6C82F45
:101AC000D0E0CE010E945B0CD0934B08C0934A0833
:101AD0006FEF86E00E946F0CC1E0C6CF10E0CBCF65
:101AE0001436D8F280E090E00E945B0C10924B0814
:101AF00010924A08D2CF0E944C0C80934C089091CF
:101B00004C0880910001981779F080914C088093DF
:101B1000000120E040E050E060E070E080914D087E
:101B200090914E080E940A0760914C0880E00E9444
:101B30006F0C80E590E00E947504DDCF82E30E9487
:101B4000810C6FEF86E00E946F0C8AB18C618AB9BC
:101B50003898409A0E94490C0E94500C43E060E083
:101B600081E00E94E30690934E0880934D08E12C9B
:101B7000F12C03E020E030E046E966E071E08BE71D
:101B80009DE00E945D0102E020E030E048EC69E069
:101B900071E088E29DE00E945D0120E030E046E9CE
:101BA0006FE071E085E09DE00E945D0101E020E0D2
:101BB00030E044E663E171E086EF9CE00E945D0165
:101BC0000E947902FFCFA1E21A2EAA1BBB1BFD01C6
:101BD0000DC0AA1FBB1FEE1FFF1FA217B307E4070C
:101BE000F50720F0A21BB30BE40BF50B661F771F64
:101BF000881F991F1A9469F7609570958095909544
:101C00009B01AC01BD01CF010895A29FB001B39F1C
:101C1000C001A39F700D811D1124911DB29F700DF5
:101C2000811D1124911D0895EE0FFF1F0590F49161
:101C3000E02D0994FB01DC0102C001900D9241509E
:0A1C40005040D8F70895F894FFCF44
:101C4A00FF49444C4500495200534552564F004CF7
:101C5A004544004C49474854000300000000E1098C
:0C1C6A00100A7E09AA09810988099B095B
:00000001FF
