:100000000C9434000C9451000C9451000C94510049
:100010000C9451000C9491020C9451000C945100DA
:100020000C9451000C9451000C9451000C9451000C
:100030000C9451000C9451000C9451000C945100FC
:100040000C9451000C9451000C9451000C945100EC
:100050000C9451000C9451000C9451000C945100DC
:100060000C9451000C94510011241FBECFEFD8E026
:10007000DEBFCDBF11E0A0E0B1E0EAEFF7E002C0E3
:1000800005900D92A632B107D9F721E0A6E2B1E0C2
:1000900001C01D92A732B207E1F70E9497010C94AC
:1000A000FB030C940000282F30E0A0EDB7E00E9485
:1000B000D10224EB30E040E050E00E94AF02205338
:1000C000384F30938900209388000895219AA0E842
:1000D000B0E080E88C93E1E8F0E088E180838C91E7
:1000E00082608C9380E49CE99093870080938600E3
:1000F00080818260808380ED97E090938900809377
:10010000880008953D9A459808953D98459A089528
:100110003C9A449808953C98449A089583B18095F8
:10012000817008952098289A0895CF93DF93D82F4F
:10013000C8E0D7FF2AC00E948B008AE18A95F1F7B8
:1001400000C00E9485008AE18A95F1F700C00E94F4
:1001500082008AE18A95F1F700C0DD0FC15049F7AE
:100160000E948B008AE18A95F1F700C00E94850009
:100170008AE18A95F1F700C00E9482008AE18A959F
:10018000F1F700C0DF91CF9108950E948800D5CF8C
:100190000E9488008AE18A95F1F700C00E948500DC
:1001A0008AE18A95F1F700C00E948B008AE18A9566
:1001B000F1F700C008950E948B000E9485008AE13B
:1001C0008A95F1F700C00E9488008AE18A95F1F7CC
:1001D00000C00E9482008AE18A95F1F700C008956C
:1001E0000F931F93CF938C01F801C1918F01C1111F
:1001F00004C0CF911F910F9108950E94DB008CE7FE
:100200000E94950080E40E9495008C2F0E9495002A
:100210000E94C80087EC90E00197F1F700C0000051
:10022000E3CFCF93C82F0E94DB008CE70E9495009C
:1002300080E80E9495008C2F0E949500CF910C942D
:10024000C800611160E4860F80680E94110187EC8C
:1002500090E00197F1F700C00000089581E00E944E
:1002600011018FE39FE10197F1F700C000000895AD
:100270000E948B000E9485002FEF80E792E02150C2
:1002800080409040E1F700C0000088E20E94110128
:100290008FE19EE40197F1F700C000008CE00E941E
:1002A00011018FE19EE40197F1F700C0000081E0A9
:1002B0000E9411018FE19EE40197F1F700C0000058
:1002C00086E00E9411018FE19EE40197F1F700C0E2
:1002D00000000895CF93DF93CDB7DEB786E290E0BC
:1002E000FC018081882F90E08170992721E0892B83
:1002F00009F020E0822FDF91CF910895CF93DF9313
:10030000CDB7DEB78AE290E0FC0120818AE290E07E
:100310002C64FC01208387E290E0FC01208187E2CD
:1003200090E02E7FFC012083DF91CF910895CF9341
:10033000DF93CDB7DEB760970FB6F894DEBF0FBE80
:10034000CDBF0E947E010E9492000E9466000E9422
:10035000380178940E942E0160E080E00E94210123
:1003600080E091E00E94F0008FEF89830E946A0193
:10037000982F81E0992309F480E0882351F08BE2E3
:1003800090E0FC0120818BE290E02064FC0120835E
:1003900009C08BE290E0FC0120818BE290E02F7B92
:1003A000FC0120830E948E008A839A81898198179C
:1003B00009F444C08A81882301F18BE290E0FC01BA
:1003C00020818BE290E02460FC0120838BE290E0AE
:1003D000FC0120818BE290E0277FFC0120838AE5ED
:1003E0000E9453000E942E0160E080E00E942101E3
:1003F0008EE091E00E94F0001FC08BE290E0FC01D3
:1004000020818BE290E02860FC0120838BE290E069
:10041000FC0120818BE290E02B7FFC01208380E0B7
:100420000E9453000E942E0160E080E00E942101A2
:100430008BE191E00E94F0008A81898380E090E066
:10044000A8E4B3E48B839C83AD83BE8320E030E0DB
:100450004AE755E46B817C818D819E810E94660311
:10046000DC01CB018F839887A987BA8720E030E031
:1004700040E85FE36F81788589859A850E94E00274
:1004800088232CF481E090E09C878B873FC020E09C
:100490003FEF4FE757E46F81788589859A850E9401
:1004A000610318164CF520E030E040E251E46B8126
:1004B0007C818D819E810E946603DC01CB01BC01A1
:1004C000CD010E94E502DC01CB019C878B878B85E7
:1004D0009C85892B09F44ACF80E991E09E878D871E
:1004E0008D859E850197F1F79E878D878B859C85ED
:1004F00001979C878B87EBCF6F81788589859A855B
:100500000E94E502DC01CB019C878B878B859C8553
:10051000988B8F878F8598890197F1F7988B8F87B4
:1005200025CF1F920F920FB60F9211242F938F9306
:100530009F932FEF89EF90E0215080409040E1F7AA
:1005400000C000004C9903C081E0809326019F9178
:100550008F912F910F900FBE0F901F901895A1E2D1
:100560001A2EAA1BBB1BFD010DC0AA1FBB1FEE1F2D
:10057000FF1FA217B307E407F50720F0A21BB30B78
:10058000E40BF50B661F771F881F991F1A9469F7F4
:1005900060957095809590959B01AC01BD01CF0150
:1005A0000895A29FB001B39FC001A39F700D811D4C
:1005B0001124911DB29F700D811D1124911D08956C
:1005C0000E94140308F481E008950E94400388F01B
:1005D0009F5798F0B92F9927B751B0F0E1F0660F07
:1005E000771F881F991F1AF0BA95C9F714C0B13048
:1005F00091F00E945A03B1E008950C945A03672FBA
:10060000782F8827B85F39F0B93FCCF38695779576
:100610006795B395D9F73EF490958095709561955F
:100620007F4F8F4F9F4F0895990F0008550FAA0BCA
:10063000E0E8FEEF16161706E807F907C0F01216F5
:100640001306E407F50798F0621B730B840B950BF8
:1006500039F40A2661F0232B242B252B21F408954D
:100660000A2609F4A140A6958FEF811D811D0895EA
:1006700057FD9058440F551F59F05F3F71F0479553
:10068000880F97FB991F61F09F3F79F08795089538
:10069000121613061406551FF2CF4695F1DF08C057
:1006A000161617061806991FF1CF86957105610574
:1006B00008940895E894BB2766277727CB0197F91C
:1006C00008950E94140308F48FEF08950E9479039F
:1006D0000C94EA030E94DC0338F00E94E30320F04C
:1006E000952311F00C94D3030C94D90311240C948A
:1006F0005B030E94380370F3959FC1F3950F50E0A0
:10070000551F629FF001729FBB27F00DB11D639FC3
:10071000AA27F00DB11DAA1F649F6627B00DA11D69
:10072000661F829F2227B00DA11D621F739FB00D0F
:10073000A11D621F839FA00D611D221F749F33277F
:10074000A00D611D231F849F600D211D822F762F18
:100750006A2F11249F5750409AF0F1F088234AF0F5
:10076000EE0FFF1FBB1F661F771F881F9150504061
:10077000A9F79E3F510580F00C94D3030C945B03C2
:100780005F3FE4F3983ED4F3869577956795B795E8
:10079000F795E7959F5FC1F7FE2B880F911D969502
:1007A000879597F9089597F99F6780E870E060E072
:1007B00008959FEF80EC089500240A9416161706FA
:1007C00018060906089500240A9412161306140642
:1007D00005060895092E0394000C11F4882352F0A5
:1007E000BB0F40F4BF2B11F460FF04C06F5F7F4F5D
:0A07F0008F4F9F4F0895F894FFCF3C
:1007FA005061726B696E672052656164790043616A
:10080A007220646574656374656400467265652068
:06081A0073706F74000012
:00000001FF
