:100000000C9434000C9451000C9451000C94510049
:100010000C9451000C94C5040C9451000C945100A4
:100020000C9451000C9451000C9451000C9451000C
:100030000C9451000C9451000C9451000C945100FC
:100040000C9451000C9451000C9451000C945100EC
:100050000C9451000C9451000C9451000C945100DC
:100060000C9451000C94510011241FBECFEFD8E026
:10007000DEBFCDBF12E0A0E0B1E0EEE9FCE002C0DF
:1000800005900D92A630B107D9F722E0A6E0B2E0C4
:1000900001C01D92A730B207E1F70E9454030C94EF
:1000A0004D060C940000CF93DF9300D0CDB7DEB7A0
:1000B00088E090E09A83898389819A81292F332768
:1000C00085EC90E0FC01208384EC90E029813A816A
:1000D000FC013183208381EC90E028E0FC01208347
:1000E00082EC90E026E0FC01208300000F900F904E
:1000F000DF91CF910895CF93DF930F92CDB7DEB705
:100100008983000080EC90E0FC018081882F90E0E2
:100110008072992721E0009709F020E0211591F7DE
:1001200086EC90E02981FC01208300000F90DF9194
:10013000CF910895CF93DF9300D0CDB7DEB79A83E8
:1001400089830BC089819A819C012F5F3F4F3A833D
:100150002983FC0180810E947B0089819A81FC01B6
:100160008081811579F7000000000F900F90DF91DA
:10017000CF910895CF93DF93CDB7DEB72C970FB60D
:10018000F894DEBF0FBECDBF9C878B878B859C8587
:100190004AE050E09E012F5F3F4FB9010E94F204F8
:1001A000CE0101960E949A0000002C960FB6F8949A
:1001B000DEBF0FBECDBFDF91CF910895CF93DF9308
:1001C000CDB7DEB780E091E00E949A000E948604DD
:1001D0000000DF91CF910895CF93DF93CDB7DEB7C5
:1001E0002E970FB6F894DEBF0FBECDBF0E947604E7
:1001F000982F81E0911509F480E0811509F47AC007
:1002000084E191E00E949A000E94860480E090E0E0
:10021000A6E1B3E489839A83AB83BC8320E030E01A
:100220004AE755E469817A818B819C810E94B805F7
:10023000DC01CB018D839E83AF83B88720E030E063
:1002400040E85FE36D817E818F8198850E94320551
:1002500081152CF481E090E09A87898740C020E0E6
:100260003FEF4FE757E46D817E818F8198850E9433
:10027000B305813054F120E030E040E251E469817F
:100280007A818B819C810E94B805DC01CB01BC0185
:10029000CD010E943705DC01CB019A87898710C008
:1002A00080E991E09C878B878B859C850197F1F78E
:1002B0009C878B87000089859A8501979A87898713
:1002C00089859A85009761F715C06D817E818F8140
:1002D00098850E943705DC01CB019A87898789853B
:1002E0009A859E878D878D859E850197F1F79E87DC
:1002F0008D87000000002E960FB6F894DEBF0FBE6B
:10030000CDBFDF91CF910895CF93DF93CDB7DEB707
:1003100060970FB6F894DEBF0FBECDBF8CE291E0C0
:100320000E949A000E9496049A83898389819A8107
:100330000E94BA008AE491E00E949A0080E090E076
:10034000A6E9B3E48B839C83AD83BE8320E030E0D9
:100350004AE755E46B817C818D819E810E94B805BE
:10036000DC01CB018F839887A987BA8720E030E032
:1003700040E85FE36F81788589859A850E94320520
:1003800081152CF481E090E09C878B8740C020E0B1
:100390003FEF4FE757E46F81788589859A850E9402
:1003A000B305813054F120E030E040E251E46B814C
:1003B0007C818D819E810E94B805DC01CB01BC014E
:1003C000CD010E943705DC01CB019C878B8710C0D3
:1003D00080E991E09E878D878D859E850197F1F755
:1003E0009E878D8700008B859C8501979C878B87D6
:1003F0008B859C85009761F715C06F81788589850D
:100400009A850E943705DC01CB019C878B878B8501
:100410009C85988B8F878F8598890197F1F7988BAA
:100420008F870000000060960FB6F894DEBF0FBE05
:10043000CDBFDF91CF910895CF93DF93CDB7DEB7D6
:100440006F970FB6F894DEBF0FBECDBF80E591E089
:100450000E949A00198287C089810E948B048FE6CE
:1004600091E00E949A008981882F90E00E94BA0052
:1004700082E092E00E949A0080E090E0A6E1B3E47E
:100480008C839D83AE83BF8320E030E04AE755E450
:100490006C817D818E819F810E94B805DC01CB013A
:1004A00088879987AA87BB8720E030E040E85FE330
:1004B000688579858A859B850E94320581152CF493
:1004C00081E090E09D878C8740C020E03FEF4FE7C0
:1004D00057E4688579858A859B850E94B3058130BC
:1004E00054F120E030E040E251E46C817D818E8166
:1004F0009F810E94B805DC01CB01BC01CD010E94A7
:100500003705DC01CB019D878C8710C080E991E025
:100510009F878E878E859F850197F1F79F878E87AE
:1005200000008C859D8501979D878C878C859D8596
:10053000009761F715C0688579858A859B850E943B
:100540003705DC01CB019D878C878C859D85998B38
:10055000888B888999890197F1F7998B888B00009E
:100560008981875E898389818F3F09F075CF8FEFFD
:1005700090E09B838A8388C08A810E948B048FE6E7
:1005800091E00E949A008A819B810E94BA0082E0D9
:1005900092E00E949A0080E090E0A6E1B3E48A8BAA
:1005A0009B8BAC8BBD8B20E030E04AE755E46A8939
:1005B0007B898C899D890E94B805DC01CB018E8BDB
:1005C0009F8BA88FB98F20E030E040E85FE36E8911
:1005D0007F89888D998D0E94320581152CF481E0E8
:1005E00090E09B8F8A8F40C020E03FEF4FE757E4B9
:1005F0006E897F89888D998D0E94B305813054F171
:1006000020E030E040E251E46A897B898C899D8951
:100610000E94B805DC01CB01BC01CD010E94370569
:10062000DC01CB019B8F8A8F10C080E991E09D8F08
:100630008C8F8C8D9D8D0197F1F79D8F8C8F000095
:100640008A8D9B8D01979B8F8A8F8A8D9B8D0097BA
:1006500061F715C06E897F89888D998D0E94370555
:10066000DC01CB019B8F8A8F8A8D9B8D9F8F8E8F14
:100670008E8D9F8D0197F1F79F8F8E8F00008A815D
:100680009B8149979B838A838A819B8100970CF089
:1006900073CF000000006F960FB6F894DEBF0FBE58
:1006A000CDBFDF91CF910895CF93DF93CDB7DEB764
:1006B0006C970FB6F894DEBF0FBECDBF0E947E04CC
:1006C0000E9469040E948E040E94530078948AE775
:1006D00091E00E949A0080E00E94800485EA91E007
:1006E0000E949A000E94DE0080E090E0AAE7B3E456
:1006F0008F87988BA98BBA8B20E030E04AE755E4CE
:100700006F85788989899A890E94B805DC01CB01B7
:100710008B8B9C8BAD8BBE8B20E030E040E85FE3A1
:100720006B897C898D899E890E94320581152CF404
:1007300081E090E0988F8F8B40C020E03FEF4FE743
:1007400057E46B897C898D899E890E94B30581302D
:1007500054F120E030E040E251E46F8578898989E6
:100760009A890E94B805DC01CB01BC01CD010E9431
:100770003705DC01CB01988F8F8B10C080E991E0A9
:100780009A8F898F898D9A8D0197F1F79A8F898F2A
:1007900000008F89988D0197988F8F8B8F89988D06
:1007A000009761F715C06B897C898D899E890E94AD
:1007B0003705DC01CB01988F8F8B8F89988D9C8FAB
:1007C0008B8F8B8D9C8D0197F1F79C8F8B8F000009
:1007D0000E94EC000E94840183ED91E00E949A0047
:1007E00088EE91E00E949A0080E090E0AAE7B4E4ED
:1007F00089839A83AB83BC8320E030E04AE755E4E9
:1008000069817A818B819C810E94B805DC01CB01D2
:100810008D839E83AF83B88720E030E040E85FE3BC
:100820006D817E818F8198850E94320581152CF41F
:1008300081E090E09A87898740C020E03FEF4FE752
:1008400057E46D817E818F8198850E94B305813048
:1008500054F120E030E040E251E469817A818B81FB
:100860009C810E94B805DC01CB01BC01CD010E9436
:100870003705DC01CB019A87898710C080E991E0B8
:100880009C878B878B859C850197F1F79C878B874D
:10089000000089859A8501979A87898789859A8535
:1008A000009761F715C06D817E818F8198850E94C8
:1008B0003705DC01CB019A87898789859A859E87D0
:1008C0008D878D859E850197F1F79E878D87000026
:1008D00005CF54985C9AE8E6F0E0808184608083DC
:1008E000EDE6F0E0808180618083089580910602CA
:1008F000811519F01092060281E00895529A089528
:10090000811511F05A9A08955A9808958BB194E080
:1009100089278BB908958093B4000895219A20986F
:100920001092800082E080938100089529982AE047
:100930002A95F1F700C0299A85E38A95F1F700001E
:10094000299880E090E0189B10C0109285001092CA
:100950008400189912C0809184009091850064E70A
:1009600070E00E94DE04CB0108950196803523ECEF
:10097000920749F780E090E008958091840090917B
:10098000850081369A4E28F3F5CF2F932FB72F93FA
:100990008F939F932FEF89EF90E0215080409040FC
:1009A000E1F700C000004C9903C081E0809306028B
:1009B0009F918F912F912FBF2F911895AA1BBB1B31
:1009C00051E107C0AA1FBB1FA617B70710F0A61B4F
:1009D000B70B881F991F5A95A9F780959095BC0170
:1009E000CD0108954532510520F4423010F00C94A9
:1009F000FD04FB011082CB010895BB274A3031F47E
:100A0000992322F4BDE2909581959F4F0C9409059E
:100A1000BB27FB015527AA27880F991FAA1FA417D8
:100A200010F0A41B83955051B9F7A05DAA3308F0CC
:100A3000A95DA193009779F7B111B1931192CB0100
:100A40000C942205DC01FC01672F71917723E1F7FB
:100A5000329704C07C916D9370836291AE17BF078B
:100A6000C8F308950E94660508F481E008950E9485
:100A7000920588F09F5798F0B92F9927B751B0F099
:100A8000E1F0660F771F881F991F1AF0BA95C9F712
:100A900014C0B13091F00E94AC05B1E008950C94FF
:100AA000AC05672F782F8827B85F39F0B93FCCF3B2
:100AB000869577956795B395D9F73EF4909580958F
:100AC000709561957F4F8F4F9F4F0895990F000844
:100AD000550FAA0BE0E8FEEF16161706E807F90710
:100AE000C0F012161306E407F50798F0621B730BAB
:100AF000840B950B39F40A2661F0232B242B252B2C
:100B000021F408950A2609F4A140A6958FEF811DCE
:100B1000811D089557FD9058440F551F59F05F3FB0
:100B200071F04795880F97FB991F61F09F3F79F00F
:100B300087950895121613061406551FF2CF469591
:100B4000F1DF08C0161617061806991FF1CF869513
:100B50007105610508940895E894BB2766277727F7
:100B6000CB0197F908950E94660508F48FEF089568
:100B70000E94CB050C943C060E942E0638F00E9481
:100B8000350620F0952311F00C9425060C942B06C5
:100B900011240C94AD050E948A0570F3959FC1F352
:100BA000950F50E0551F629FF001729FBB27F00D1B
:100BB000B11D639FAA27F00DB11DAA1F649F662770
:100BC000B00DA11D661F829F2227B00DA11D621FBF
:100BD000739FB00DA11D621F839FA00D611D221F79
:100BE000749F3327A00D611D231F849F600D211D5D
:100BF000822F762F6A2F11249F5750409AF0F1F0E0
:100C000088234AF0EE0FFF1FBB1F661F771F881F48
:100C100091505040A9F79E3F510580F00C94250655
:100C20000C94AD055F3FE4F3983ED4F38695779539
:100C30006795B795F795E7959F5FC1F7FE2B880FEE
:100C4000911D9695879597F9089597F99F6780E884
:100C500070E060E008959FEF80EC089500240A940E
:100C60001616170618060906089500240A94121687
:100C70001306140605060895092E0394000C11F4BA
:100C8000882352F0BB0F40F4BF2B11F460FF04C067
:0E0C90006F5F7F4F8F4F9F4F0895F894FFCFF7
:100C9E005B544553545D204C454420746F67676C1C
:100CAE00650D0A005B544553545D20427574746F94
:100CBE006E20707265737365640D0A005B54455344
:100CCE00545D20556C747261736F6E6963206D652F
:100CDE0061737572652E2E2E200020636D0D0A0035
:100CEE005B544553545D204D6F746F722050574DB9
:100CFE002073706565642073776565700D0A00203A
:100D0E00205370656564203D20000D0A3D3D3D2059
:100D1E00534D4152542053454E534F52202D204493
:100D2E0052495645522053454C4654455354203D46
:100D3E003D3D0D0A000D0A3E3E3E2052756E6E6917
:100D4E006E6720636F6D706C657465206472697672
:100D5E0065722074657374206379636C652E2E2E14
:100D6E000D0A003E3E3E20454E442054455354202D
:100D7E004359434C450D0A002D2D2D2D2D2D2D2D76
:100D8E002D2D2D2D2D2D2D2D2D2D2D2D2D2D2D2D85
:060D9E002D2D0D0A0000DE
:00000001FF
